{
	"contracts/Lottery.sol": {
		"Lottery": {
			"abi": [
				{
					"inputs": [],
					"stateMutability": "nonpayable",
					"type": "constructor"
				},
				{
					"stateMutability": "nonpayable",
					"type": "fallback"
				},
				{
					"inputs": [],
					"name": "getBalanceOfBallot",
					"outputs": [
						{
							"internalType": "uint256",
							"name": "",
							"type": "uint256"
						}
					],
					"stateMutability": "view",
					"type": "function"
				},
				{
					"inputs": [],
					"name": "manager",
					"outputs": [
						{
							"internalType": "address",
							"name": "",
							"type": "address"
						}
					],
					"stateMutability": "view",
					"type": "function"
				},
				{
					"inputs": [],
					"name": "registerParticipant",
					"outputs": [],
					"stateMutability": "payable",
					"type": "function"
				},
				{
					"inputs": [],
					"name": "returnParticipantsList",
					"outputs": [
						{
							"components": [
								{
									"internalType": "uint256",
									"name": "id",
									"type": "uint256"
								},
								{
									"internalType": "address payable",
									"name": "accountAddress",
									"type": "address"
								}
							],
							"internalType": "struct Lottery.particiapnt[]",
							"name": "",
							"type": "tuple[]"
						}
					],
					"stateMutability": "view",
					"type": "function"
				},
				{
					"inputs": [],
					"name": "selectWinner",
					"outputs": [],
					"stateMutability": "nonpayable",
					"type": "function"
				},
				{
					"inputs": [],
					"name": "winner",
					"outputs": [
						{
							"internalType": "address payable",
							"name": "",
							"type": "address"
						}
					],
					"stateMutability": "view",
					"type": "function"
				},
				{
					"stateMutability": "payable",
					"type": "receive"
				}
			],
			"devdoc": {
				"kind": "dev",
				"methods": {},
				"version": 1
			},
			"evm": {
				"assembly": "    /* \"contracts/Lottery.sol\":74:2213  contract Lottery{... */\n  mstore(0x40, 0x80)\n    /* \"contracts/Lottery.sol\":477:529  constructor(){... */\n  callvalue\n  dup1\n  iszero\n  tag_1\n  jumpi\n  0x00\n  dup1\n  revert\ntag_1:\n  pop\n    /* \"contracts/Lottery.sol\":511:521  msg.sender */\n  caller\n    /* \"contracts/Lottery.sol\":501:508  manager */\n  0x02\n  0x00\n    /* \"contracts/Lottery.sol\":501:521  manager = msg.sender */\n  0x0100\n  exp\n  dup2\n  sload\n  dup2\n  0xffffffffffffffffffffffffffffffffffffffff\n  mul\n  not\n  and\n  swap1\n  dup4\n  0xffffffffffffffffffffffffffffffffffffffff\n  and\n  mul\n  or\n  swap1\n  sstore\n  pop\n    /* \"contracts/Lottery.sol\":74:2213  contract Lottery{... */\n  dataSize(sub_0)\n  dup1\n  dataOffset(sub_0)\n  0x00\n  codecopy\n  0x00\n  return\nstop\n\nsub_0: assembly {\n        /* \"contracts/Lottery.sol\":74:2213  contract Lottery{... */\n      mstore(0x40, 0x80)\n      jumpi(tag_1, lt(calldatasize, 0x04))\n      shr(0xe0, calldataload(0x00))\n      dup1\n      0x33a99e04\n      eq\n      tag_3\n      jumpi\n      dup1\n      0x481c6a75\n      eq\n      tag_4\n      jumpi\n      dup1\n      0xaf5bc7b5\n      eq\n      tag_5\n      jumpi\n      dup1\n      0xccfc811b\n      eq\n      tag_6\n      jumpi\n      dup1\n      0xdfbf53ae\n      eq\n      tag_7\n      jumpi\n      dup1\n      0xe97c125f\n      eq\n      tag_8\n      jumpi\n      jump(tag_2)\n    tag_1:\n      jumpi(tag_2, calldatasize)\n        /* \"contracts/Lottery.sol\":1976:1983  1 ether */\n      0x0de0b6b3a7640000\n        /* \"contracts/Lottery.sol\":1963:1972  msg.value */\n      callvalue\n        /* \"contracts/Lottery.sol\":1963:1983  msg.value != 1 ether */\n      eq\n      iszero\n        /* \"contracts/Lottery.sol\":1963:2008  msg.value != 1 ether || msg.sender != manager */\n      dup1\n      tag_11\n      jumpi\n      pop\n        /* \"contracts/Lottery.sol\":2001:2008  manager */\n      0x02\n      0x00\n      swap1\n      sload\n      swap1\n      0x0100\n      exp\n      swap1\n      div\n      0xffffffffffffffffffffffffffffffffffffffff\n      and\n        /* \"contracts/Lottery.sol\":1987:2008  msg.sender != manager */\n      0xffffffffffffffffffffffffffffffffffffffff\n      and\n        /* \"contracts/Lottery.sol\":1987:1997  msg.sender */\n      caller\n        /* \"contracts/Lottery.sol\":1987:2008  msg.sender != manager */\n      0xffffffffffffffffffffffffffffffffffffffff\n      and\n      eq\n      iszero\n        /* \"contracts/Lottery.sol\":1963:2008  msg.value != 1 ether || msg.sender != manager */\n    tag_11:\n        /* \"contracts/Lottery.sol\":1960:2076  if(msg.value != 1 ether || msg.sender != manager){... */\n      iszero\n      tag_12\n      jumpi\n        /* \"contracts/Lottery.sol\":2033:2043  msg.sender */\n      caller\n        /* \"contracts/Lottery.sol\":2024:2053  payable (msg.sender).transfer */\n      0xffffffffffffffffffffffffffffffffffffffff\n      and\n        /* \"contracts/Lottery.sol\":2024:2064  payable (msg.sender).transfer(msg.value) */\n      0x08fc\n        /* \"contracts/Lottery.sol\":2054:2063  msg.value */\n      callvalue\n        /* \"contracts/Lottery.sol\":2024:2064  payable (msg.sender).transfer(msg.value) */\n      swap1\n      dup2\n      iszero\n      mul\n      swap1\n      mload(0x40)\n      0x00\n      mload(0x40)\n      dup1\n      dup4\n      sub\n      dup2\n      dup6\n      dup9\n      dup9\n      call\n      swap4\n      pop\n      pop\n      pop\n      pop\n      iszero\n      dup1\n      iszero\n      tag_14\n      jumpi\n      returndatasize\n      0x00\n      dup1\n      returndatacopy\n      revert(0x00, returndatasize)\n    tag_14:\n      pop\n        /* \"contracts/Lottery.sol\":1960:2076  if(msg.value != 1 ether || msg.sender != manager){... */\n    tag_12:\n        /* \"contracts/Lottery.sol\":2113:2154  particiapnt(nextID, payable (msg.sender)) */\n      mload(0x40)\n      dup1\n      0x40\n      add\n      0x40\n      mstore\n      dup1\n        /* \"contracts/Lottery.sol\":2125:2131  nextID */\n      sload(0x03)\n        /* \"contracts/Lottery.sol\":2113:2154  particiapnt(nextID, payable (msg.sender)) */\n      dup2\n      mstore\n      0x20\n      add\n        /* \"contracts/Lottery.sol\":2142:2152  msg.sender */\n      caller\n        /* \"contracts/Lottery.sol\":2113:2154  particiapnt(nextID, payable (msg.sender)) */\n      0xffffffffffffffffffffffffffffffffffffffff\n      and\n      dup2\n      mstore\n      pop\n        /* \"contracts/Lottery.sol\":2086:2102  ParticipantsList */\n      0x01\n        /* \"contracts/Lottery.sol\":2086:2110  ParticipantsList[nextID] */\n      0x00\n        /* \"contracts/Lottery.sol\":2103:2109  nextID */\n      sload(0x03)\n        /* \"contracts/Lottery.sol\":2086:2110  ParticipantsList[nextID] */\n      dup2\n      mstore\n      0x20\n      add\n      swap1\n      dup2\n      mstore\n      0x20\n      add\n      0x00\n      keccak256\n        /* \"contracts/Lottery.sol\":2086:2154  ParticipantsList[nextID] = particiapnt(nextID, payable (msg.sender)) */\n      0x00\n      dup3\n      add\n      mload\n      dup2\n      0x00\n      add\n      sstore\n      0x20\n      dup3\n      add\n      mload\n      dup2\n      0x01\n      add\n      exp(0x0100, 0x00)\n      dup2\n      sload\n      dup2\n      0xffffffffffffffffffffffffffffffffffffffff\n      mul\n      not\n      and\n      swap1\n      dup4\n      0xffffffffffffffffffffffffffffffffffffffff\n      and\n      mul\n      or\n      swap1\n      sstore\n      pop\n      swap1\n      pop\n      pop\n        /* \"contracts/Lottery.sol\":2165:2171  nextID */\n      0x03\n      0x00\n        /* \"contracts/Lottery.sol\":2165:2173  nextID++ */\n      dup2\n      sload\n      dup1\n      swap3\n      swap2\n      swap1\n      tag_15\n      swap1\n      tag_16\n      jump\t// in\n    tag_15:\n      swap2\n      swap1\n      pop\n      sstore\n      stop\n        /* \"contracts/Lottery.sol\":74:2213  contract Lottery{... */\n    tag_2:\n      callvalue\n      dup1\n      iszero\n      tag_17\n      jumpi\n      0x00\n      dup1\n      revert\n    tag_17:\n      stop\n        /* \"contracts/Lottery.sol\":1165:1547  function selectWinner() public onlyManager(){... */\n    tag_3:\n      callvalue\n      dup1\n      iszero\n      tag_20\n      jumpi\n      0x00\n      dup1\n      revert\n    tag_20:\n      pop\n      tag_21\n      tag_22\n      jump\t// in\n    tag_21:\n      stop\n        /* \"contracts/Lottery.sol\":280:302  address public manager */\n    tag_4:\n      callvalue\n      dup1\n      iszero\n      tag_23\n      jumpi\n      0x00\n      dup1\n      revert\n    tag_23:\n      pop\n      tag_24\n      tag_25\n      jump\t// in\n    tag_24:\n      mload(0x40)\n      tag_26\n      swap2\n      swap1\n      tag_27\n      jump\t// in\n    tag_26:\n      mload(0x40)\n      dup1\n      swap2\n      sub\n      swap1\n      return\n        /* \"contracts/Lottery.sol\":824:1003  function getBalanceOfBallot() public view onlyManager returns(uint){... */\n    tag_5:\n      callvalue\n      dup1\n      iszero\n      tag_28\n      jumpi\n      0x00\n      dup1\n      revert\n    tag_28:\n      pop\n      tag_29\n      tag_30\n      jump\t// in\n    tag_29:\n      mload(0x40)\n      tag_31\n      swap2\n      swap1\n      tag_32\n      jump\t// in\n    tag_31:\n      mload(0x40)\n      dup1\n      swap2\n      sub\n      swap1\n      return\n        /* \"contracts/Lottery.sol\":537:816  function registerParticipant() public payable {... */\n    tag_6:\n      tag_33\n      tag_34\n      jump\t// in\n    tag_33:\n      stop\n        /* \"contracts/Lottery.sol\":97:126  address payable public winner */\n    tag_7:\n      callvalue\n      dup1\n      iszero\n      tag_35\n      jumpi\n      0x00\n      dup1\n      revert\n    tag_35:\n      pop\n      tag_36\n      tag_37\n      jump\t// in\n    tag_36:\n      mload(0x40)\n      tag_38\n      swap2\n      swap1\n      tag_39\n      jump\t// in\n    tag_38:\n      mload(0x40)\n      dup1\n      swap2\n      sub\n      swap1\n      return\n        /* \"contracts/Lottery.sol\":1555:1915  function returnParticipantsList() public view returns (particiapnt[] memory){... */\n    tag_8:\n      callvalue\n      dup1\n      iszero\n      tag_40\n      jumpi\n      0x00\n      dup1\n      revert\n    tag_40:\n      pop\n      tag_41\n      tag_42\n      jump\t// in\n    tag_41:\n      mload(0x40)\n      tag_43\n      swap2\n      swap1\n      tag_44\n      jump\t// in\n    tag_43:\n      mload(0x40)\n      dup1\n      swap2\n      sub\n      swap1\n      return\n        /* \"contracts/Lottery.sol\":1165:1547  function selectWinner() public onlyManager(){... */\n    tag_22:\n        /* \"contracts/Lottery.sol\":392:399  manager */\n      0x02\n      0x00\n      swap1\n      sload\n      swap1\n      0x0100\n      exp\n      swap1\n      div\n      0xffffffffffffffffffffffffffffffffffffffff\n      and\n        /* \"contracts/Lottery.sol\":378:399  msg.sender == manager */\n      0xffffffffffffffffffffffffffffffffffffffff\n      and\n        /* \"contracts/Lottery.sol\":378:388  msg.sender */\n      caller\n        /* \"contracts/Lottery.sol\":378:399  msg.sender == manager */\n      0xffffffffffffffffffffffffffffffffffffffff\n      and\n      eq\n        /* \"contracts/Lottery.sol\":370:449  require(msg.sender == manager, \"You are not allowed to do this functionality!\") */\n      tag_46\n      jumpi\n      mload(0x40)\n      0x08c379a000000000000000000000000000000000000000000000000000000000\n      dup2\n      mstore\n      0x04\n      add\n      tag_47\n      swap1\n      tag_48\n      jump\t// in\n    tag_47:\n      mload(0x40)\n      dup1\n      swap2\n      sub\n      swap1\n      revert\n    tag_46:\n        /* \"contracts/Lottery.sol\":1247:1248  3 */\n      0x03\n        /* \"contracts/Lottery.sol\":1238:1244  nextID */\n      dup1\n      sload\n        /* \"contracts/Lottery.sol\":1238:1248  nextID>= 3 */\n      lt\n      iszero\n        /* \"contracts/Lottery.sol\":1230:1249  require(nextID>= 3) */\n      tag_50\n      jumpi\n      0x00\n      dup1\n      revert\n    tag_50:\n        /* \"contracts/Lottery.sol\":1260:1270  uint index */\n      0x00\n        /* \"contracts/Lottery.sol\":1284:1290  nextID */\n      sload(0x03)\n        /* \"contracts/Lottery.sol\":1273:1281  random() */\n      tag_51\n        /* \"contracts/Lottery.sol\":1273:1279  random */\n      tag_52\n        /* \"contracts/Lottery.sol\":1273:1281  random() */\n      jump\t// in\n    tag_51:\n        /* \"contracts/Lottery.sol\":1273:1290  random() % nextID */\n      tag_53\n      swap2\n      swap1\n      tag_54\n      jump\t// in\n    tag_53:\n        /* \"contracts/Lottery.sol\":1260:1290  uint index = random() % nextID */\n      swap1\n      pop\n        /* \"contracts/Lottery.sol\":1310:1326  ParticipantsList */\n      0x01\n        /* \"contracts/Lottery.sol\":1310:1333  ParticipantsList[index] */\n      0x00\n        /* \"contracts/Lottery.sol\":1327:1332  index */\n      dup3\n        /* \"contracts/Lottery.sol\":1310:1333  ParticipantsList[index] */\n      dup2\n      mstore\n      0x20\n      add\n      swap1\n      dup2\n      mstore\n      0x20\n      add\n      0x00\n      keccak256\n        /* \"contracts/Lottery.sol\":1310:1348  ParticipantsList[index].accountAddress */\n      0x01\n      add\n      0x00\n      swap1\n      sload\n      swap1\n      0x0100\n      exp\n      swap1\n      div\n      0xffffffffffffffffffffffffffffffffffffffff\n      and\n        /* \"contracts/Lottery.sol\":1301:1307  winner */\n      0x00\n      dup1\n        /* \"contracts/Lottery.sol\":1301:1348  winner = ParticipantsList[index].accountAddress */\n      0x0100\n      exp\n      dup2\n      sload\n      dup2\n      0xffffffffffffffffffffffffffffffffffffffff\n      mul\n      not\n      and\n      swap1\n      dup4\n      0xffffffffffffffffffffffffffffffffffffffff\n      and\n      mul\n      or\n      swap1\n      sstore\n      pop\n        /* \"contracts/Lottery.sol\":1359:1365  winner */\n      0x00\n      dup1\n      sload\n      swap1\n      0x0100\n      exp\n      swap1\n      div\n      0xffffffffffffffffffffffffffffffffffffffff\n      and\n        /* \"contracts/Lottery.sol\":1359:1374  winner.transfer */\n      0xffffffffffffffffffffffffffffffffffffffff\n      and\n        /* \"contracts/Lottery.sol\":1359:1397  winner.transfer(address(this).balance) */\n      0x08fc\n        /* \"contracts/Lottery.sol\":1375:1396  address(this).balance */\n      selfbalance\n        /* \"contracts/Lottery.sol\":1359:1397  winner.transfer(address(this).balance) */\n      swap1\n      dup2\n      iszero\n      mul\n      swap1\n      mload(0x40)\n      0x00\n      mload(0x40)\n      dup1\n      dup4\n      sub\n      dup2\n      dup6\n      dup9\n      dup9\n      call\n      swap4\n      pop\n      pop\n      pop\n      pop\n      iszero\n      dup1\n      iszero\n      tag_56\n      jumpi\n      returndatasize\n      0x00\n      dup1\n      returndatacopy\n      revert(0x00, returndatasize)\n    tag_56:\n      pop\n        /* \"contracts/Lottery.sol\":1412:1418  uint i */\n      0x00\n        /* \"contracts/Lottery.sol\":1408:1519  for(uint i=0; i<nextID; i++){... */\n    tag_57:\n        /* \"contracts/Lottery.sol\":1424:1430  nextID */\n      sload(0x03)\n        /* \"contracts/Lottery.sol\":1422:1423  i */\n      dup2\n        /* \"contracts/Lottery.sol\":1422:1430  i<nextID */\n      lt\n        /* \"contracts/Lottery.sol\":1408:1519  for(uint i=0; i<nextID; i++){... */\n      iszero\n      tag_58\n      jumpi\n        /* \"contracts/Lottery.sol\":1473:1507  particiapnt(0,payable(address(0))) */\n      mload(0x40)\n      dup1\n      0x40\n      add\n      0x40\n      mstore\n      dup1\n        /* \"contracts/Lottery.sol\":1485:1486  0 */\n      0x00\n        /* \"contracts/Lottery.sol\":1473:1507  particiapnt(0,payable(address(0))) */\n      dup2\n      mstore\n      0x20\n      add\n        /* \"contracts/Lottery.sol\":1503:1504  0 */\n      0x00\n        /* \"contracts/Lottery.sol\":1473:1507  particiapnt(0,payable(address(0))) */\n      0xffffffffffffffffffffffffffffffffffffffff\n      and\n      dup2\n      mstore\n      pop\n        /* \"contracts/Lottery.sol\":1451:1467  ParticipantsList */\n      0x01\n        /* \"contracts/Lottery.sol\":1451:1470  ParticipantsList[i] */\n      0x00\n        /* \"contracts/Lottery.sol\":1468:1469  i */\n      dup4\n        /* \"contracts/Lottery.sol\":1451:1470  ParticipantsList[i] */\n      dup2\n      mstore\n      0x20\n      add\n      swap1\n      dup2\n      mstore\n      0x20\n      add\n      0x00\n      keccak256\n        /* \"contracts/Lottery.sol\":1451:1507  ParticipantsList[i] = particiapnt(0,payable(address(0))) */\n      0x00\n      dup3\n      add\n      mload\n      dup2\n      0x00\n      add\n      sstore\n      0x20\n      dup3\n      add\n      mload\n      dup2\n      0x01\n      add\n      exp(0x0100, 0x00)\n      dup2\n      sload\n      dup2\n      0xffffffffffffffffffffffffffffffffffffffff\n      mul\n      not\n      and\n      swap1\n      dup4\n      0xffffffffffffffffffffffffffffffffffffffff\n      and\n      mul\n      or\n      swap1\n      sstore\n      pop\n      swap1\n      pop\n      pop\n        /* \"contracts/Lottery.sol\":1432:1435  i++ */\n      dup1\n      dup1\n      tag_60\n      swap1\n      tag_16\n      jump\t// in\n    tag_60:\n      swap2\n      pop\n      pop\n        /* \"contracts/Lottery.sol\":1408:1519  for(uint i=0; i<nextID; i++){... */\n      jump(tag_57)\n    tag_58:\n      pop\n        /* \"contracts/Lottery.sol\":1538:1539  0 */\n      0x00\n        /* \"contracts/Lottery.sol\":1529:1535  nextID */\n      0x03\n        /* \"contracts/Lottery.sol\":1529:1539  nextID = 0 */\n      dup2\n      swap1\n      sstore\n      pop\n        /* \"contracts/Lottery.sol\":1209:1547  {... */\n      pop\n        /* \"contracts/Lottery.sol\":1165:1547  function selectWinner() public onlyManager(){... */\n      jump\t// out\n        /* \"contracts/Lottery.sol\":280:302  address public manager */\n    tag_25:\n      0x02\n      0x00\n      swap1\n      sload\n      swap1\n      0x0100\n      exp\n      swap1\n      div\n      0xffffffffffffffffffffffffffffffffffffffff\n      and\n      dup2\n      jump\t// out\n        /* \"contracts/Lottery.sol\":824:1003  function getBalanceOfBallot() public view onlyManager returns(uint){... */\n    tag_30:\n        /* \"contracts/Lottery.sol\":886:890  uint */\n      0x00\n        /* \"contracts/Lottery.sol\":392:399  manager */\n      0x02\n      0x00\n      swap1\n      sload\n      swap1\n      0x0100\n      exp\n      swap1\n      div\n      0xffffffffffffffffffffffffffffffffffffffff\n      and\n        /* \"contracts/Lottery.sol\":378:399  msg.sender == manager */\n      0xffffffffffffffffffffffffffffffffffffffff\n      and\n        /* \"contracts/Lottery.sol\":378:388  msg.sender */\n      caller\n        /* \"contracts/Lottery.sol\":378:399  msg.sender == manager */\n      0xffffffffffffffffffffffffffffffffffffffff\n      and\n      eq\n        /* \"contracts/Lottery.sol\":370:449  require(msg.sender == manager, \"You are not allowed to do this functionality!\") */\n      tag_62\n      jumpi\n      mload(0x40)\n      0x08c379a000000000000000000000000000000000000000000000000000000000\n      dup2\n      mstore\n      0x04\n      add\n      tag_63\n      swap1\n      tag_48\n      jump\t// in\n    tag_63:\n      mload(0x40)\n      dup1\n      swap2\n      sub\n      swap1\n      revert\n    tag_62:\n        /* \"contracts/Lottery.sol\":924:931  manager */\n      0x02\n      0x00\n      swap1\n      sload\n      swap1\n      0x0100\n      exp\n      swap1\n      div\n      0xffffffffffffffffffffffffffffffffffffffff\n      and\n        /* \"contracts/Lottery.sol\":910:931  msg.sender == manager */\n      0xffffffffffffffffffffffffffffffffffffffff\n      and\n        /* \"contracts/Lottery.sol\":910:920  msg.sender */\n      caller\n        /* \"contracts/Lottery.sol\":910:931  msg.sender == manager */\n      0xffffffffffffffffffffffffffffffffffffffff\n      and\n      eq\n        /* \"contracts/Lottery.sol\":902:955  require(msg.sender == manager, \"You are not manager\") */\n      tag_65\n      jumpi\n      mload(0x40)\n      0x08c379a000000000000000000000000000000000000000000000000000000000\n      dup2\n      mstore\n      0x04\n      add\n      tag_66\n      swap1\n      tag_67\n      jump\t// in\n    tag_66:\n      mload(0x40)\n      dup1\n      swap2\n      sub\n      swap1\n      revert\n    tag_65:\n        /* \"contracts/Lottery.sol\":973:994  address(this).balance */\n      selfbalance\n        /* \"contracts/Lottery.sol\":966:995  return(address(this).balance) */\n      swap1\n      pop\n        /* \"contracts/Lottery.sol\":824:1003  function getBalanceOfBallot() public view onlyManager returns(uint){... */\n      swap1\n      jump\t// out\n        /* \"contracts/Lottery.sol\":537:816  function registerParticipant() public payable {... */\n    tag_34:\n        /* \"contracts/Lottery.sol\":616:623  manager */\n      0x02\n      0x00\n      swap1\n      sload\n      swap1\n      0x0100\n      exp\n      swap1\n      div\n      0xffffffffffffffffffffffffffffffffffffffff\n      and\n        /* \"contracts/Lottery.sol\":602:623  msg.sender != manager */\n      0xffffffffffffffffffffffffffffffffffffffff\n      and\n        /* \"contracts/Lottery.sol\":602:612  msg.sender */\n      caller\n        /* \"contracts/Lottery.sol\":602:623  msg.sender != manager */\n      0xffffffffffffffffffffffffffffffffffffffff\n      and\n      sub\n        /* \"contracts/Lottery.sol\":594:643  require(msg.sender != manager, \"You are manager\") */\n      tag_69\n      jumpi\n      mload(0x40)\n      0x08c379a000000000000000000000000000000000000000000000000000000000\n      dup2\n      mstore\n      0x04\n      add\n      tag_70\n      swap1\n      tag_71\n      jump\t// in\n    tag_70:\n      mload(0x40)\n      dup1\n      swap2\n      sub\n      swap1\n      revert\n    tag_69:\n        /* \"contracts/Lottery.sol\":675:682  1 ether */\n      0x0de0b6b3a7640000\n        /* \"contracts/Lottery.sol\":662:671  msg.value */\n      callvalue\n        /* \"contracts/Lottery.sol\":662:682  msg.value == 1 ether */\n      eq\n        /* \"contracts/Lottery.sol\":654:710  require(msg.value == 1 ether, \"Enter valid ticket size\") */\n      tag_72\n      jumpi\n      mload(0x40)\n      0x08c379a000000000000000000000000000000000000000000000000000000000\n      dup2\n      mstore\n      0x04\n      add\n      tag_73\n      swap1\n      tag_74\n      jump\t// in\n    tag_73:\n      mload(0x40)\n      dup1\n      swap2\n      sub\n      swap1\n      revert\n    tag_72:\n        /* \"contracts/Lottery.sol\":748:789  particiapnt(nextID, payable (msg.sender)) */\n      mload(0x40)\n      dup1\n      0x40\n      add\n      0x40\n      mstore\n      dup1\n        /* \"contracts/Lottery.sol\":760:766  nextID */\n      sload(0x03)\n        /* \"contracts/Lottery.sol\":748:789  particiapnt(nextID, payable (msg.sender)) */\n      dup2\n      mstore\n      0x20\n      add\n        /* \"contracts/Lottery.sol\":777:787  msg.sender */\n      caller\n        /* \"contracts/Lottery.sol\":748:789  particiapnt(nextID, payable (msg.sender)) */\n      0xffffffffffffffffffffffffffffffffffffffff\n      and\n      dup2\n      mstore\n      pop\n        /* \"contracts/Lottery.sol\":721:737  ParticipantsList */\n      0x01\n        /* \"contracts/Lottery.sol\":721:745  ParticipantsList[nextID] */\n      0x00\n        /* \"contracts/Lottery.sol\":738:744  nextID */\n      sload(0x03)\n        /* \"contracts/Lottery.sol\":721:745  ParticipantsList[nextID] */\n      dup2\n      mstore\n      0x20\n      add\n      swap1\n      dup2\n      mstore\n      0x20\n      add\n      0x00\n      keccak256\n        /* \"contracts/Lottery.sol\":721:789  ParticipantsList[nextID] = particiapnt(nextID, payable (msg.sender)) */\n      0x00\n      dup3\n      add\n      mload\n      dup2\n      0x00\n      add\n      sstore\n      0x20\n      dup3\n      add\n      mload\n      dup2\n      0x01\n      add\n      exp(0x0100, 0x00)\n      dup2\n      sload\n      dup2\n      0xffffffffffffffffffffffffffffffffffffffff\n      mul\n      not\n      and\n      swap1\n      dup4\n      0xffffffffffffffffffffffffffffffffffffffff\n      and\n      mul\n      or\n      swap1\n      sstore\n      pop\n      swap1\n      pop\n      pop\n        /* \"contracts/Lottery.sol\":800:806  nextID */\n      0x03\n      0x00\n        /* \"contracts/Lottery.sol\":800:808  nextID++ */\n      dup2\n      sload\n      dup1\n      swap3\n      swap2\n      swap1\n      tag_75\n      swap1\n      tag_16\n      jump\t// in\n    tag_75:\n      swap2\n      swap1\n      pop\n      sstore\n      pop\n        /* \"contracts/Lottery.sol\":537:816  function registerParticipant() public payable {... */\n      jump\t// out\n        /* \"contracts/Lottery.sol\":97:126  address payable public winner */\n    tag_37:\n      0x00\n      dup1\n      sload\n      swap1\n      0x0100\n      exp\n      swap1\n      div\n      0xffffffffffffffffffffffffffffffffffffffff\n      and\n      dup2\n      jump\t// out\n        /* \"contracts/Lottery.sol\":1555:1915  function returnParticipantsList() public view returns (particiapnt[] memory){... */\n    tag_42:\n        /* \"contracts/Lottery.sol\":1610:1630  particiapnt[] memory */\n      0x60\n        /* \"contracts/Lottery.sol\":1642:1679  particiapnt[] memory participantsList */\n      0x00\n        /* \"contracts/Lottery.sol\":1700:1706  nextID */\n      sload(0x03)\n        /* \"contracts/Lottery.sol\":1682:1707  new particiapnt[](nextID) */\n      0xffffffffffffffff\n      dup2\n      gt\n      iszero\n      tag_77\n      jumpi\n      tag_78\n      tag_79\n      jump\t// in\n    tag_78:\n    tag_77:\n      mload(0x40)\n      swap1\n      dup1\n      dup3\n      mstore\n      dup1\n      0x20\n      mul\n      0x20\n      add\n      dup3\n      add\n      0x40\n      mstore\n      dup1\n      iszero\n      tag_80\n      jumpi\n      dup2\n      0x20\n      add\n    tag_81:\n      tag_82\n      tag_83\n      jump\t// in\n    tag_82:\n      dup2\n      mstore\n      0x20\n      add\n      swap1\n      0x01\n      swap1\n      sub\n      swap1\n      dup2\n      tag_81\n      jumpi\n      swap1\n      pop\n    tag_80:\n      pop\n        /* \"contracts/Lottery.sol\":1642:1707  particiapnt[] memory participantsList = new particiapnt[](nextID) */\n      swap1\n      pop\n        /* \"contracts/Lottery.sol\":1718:1741  particiapnt memory temp */\n      tag_84\n      tag_83\n      jump\t// in\n    tag_84:\n        /* \"contracts/Lottery.sol\":1756:1762  uint i */\n      0x00\n        /* \"contracts/Lottery.sol\":1752:1874  for(uint i=0; i<nextID; i++){... */\n    tag_85:\n        /* \"contracts/Lottery.sol\":1768:1774  nextID */\n      sload(0x03)\n        /* \"contracts/Lottery.sol\":1766:1767  i */\n      dup2\n        /* \"contracts/Lottery.sol\":1766:1774  i<nextID */\n      lt\n        /* \"contracts/Lottery.sol\":1752:1874  for(uint i=0; i<nextID; i++){... */\n      iszero\n      tag_86\n      jumpi\n        /* \"contracts/Lottery.sol\":1802:1818  ParticipantsList */\n      0x01\n        /* \"contracts/Lottery.sol\":1802:1821  ParticipantsList[i] */\n      0x00\n        /* \"contracts/Lottery.sol\":1819:1820  i */\n      dup3\n        /* \"contracts/Lottery.sol\":1802:1821  ParticipantsList[i] */\n      dup2\n      mstore\n      0x20\n      add\n      swap1\n      dup2\n      mstore\n      0x20\n      add\n      0x00\n      keccak256\n        /* \"contracts/Lottery.sol\":1795:1821  temp = ParticipantsList[i] */\n      mload(0x40)\n      dup1\n      0x40\n      add\n      0x40\n      mstore\n      swap1\n      dup2\n      0x00\n      dup3\n      add\n      sload\n      dup2\n      mstore\n      0x20\n      add\n      0x01\n      dup3\n      add\n      0x00\n      swap1\n      sload\n      swap1\n      0x0100\n      exp\n      swap1\n      div\n      0xffffffffffffffffffffffffffffffffffffffff\n      and\n      0xffffffffffffffffffffffffffffffffffffffff\n      and\n      0xffffffffffffffffffffffffffffffffffffffff\n      and\n      dup2\n      mstore\n      pop\n      pop\n      swap2\n      pop\n        /* \"contracts/Lottery.sol\":1858:1862  temp */\n      dup2\n        /* \"contracts/Lottery.sol\":1836:1852  participantsList */\n      dup4\n        /* \"contracts/Lottery.sol\":1853:1854  i */\n      dup3\n        /* \"contracts/Lottery.sol\":1836:1855  participantsList[i] */\n      dup2\n      mload\n      dup2\n      lt\n      tag_88\n      jumpi\n      tag_89\n      tag_90\n      jump\t// in\n    tag_89:\n    tag_88:\n      0x20\n      mul\n      0x20\n      add\n      add\n        /* \"contracts/Lottery.sol\":1836:1862  participantsList[i] = temp */\n      dup2\n      swap1\n      mstore\n      pop\n        /* \"contracts/Lottery.sol\":1776:1779  i++ */\n      dup1\n      dup1\n      tag_91\n      swap1\n      tag_16\n      jump\t// in\n    tag_91:\n      swap2\n      pop\n      pop\n        /* \"contracts/Lottery.sol\":1752:1874  for(uint i=0; i<nextID; i++){... */\n      jump(tag_85)\n    tag_86:\n      pop\n        /* \"contracts/Lottery.sol\":1891:1907  participantsList */\n      dup2\n        /* \"contracts/Lottery.sol\":1884:1907  return participantsList */\n      swap3\n      pop\n      pop\n      pop\n        /* \"contracts/Lottery.sol\":1555:1915  function returnParticipantsList() public view returns (particiapnt[] memory){... */\n      swap1\n      jump\t// out\n        /* \"contracts/Lottery.sol\":1011:1157  function random() private view returns(uint){... */\n    tag_52:\n        /* \"contracts/Lottery.sol\":1050:1054  uint */\n      0x00\n        /* \"contracts/Lottery.sol\":1105:1121  block.difficulty */\n      prevrandao\n        /* \"contracts/Lottery.sol\":1123:1138  block.timestamp */\n      timestamp\n        /* \"contracts/Lottery.sol\":1140:1146  nextID */\n      sload(0x03)\n        /* \"contracts/Lottery.sol\":1088:1147  abi.encodePacked(block.difficulty, block.timestamp, nextID) */\n      add(0x20, mload(0x40))\n      tag_93\n      swap4\n      swap3\n      swap2\n      swap1\n      tag_94\n      jump\t// in\n    tag_93:\n      mload(0x40)\n      0x20\n      dup2\n      dup4\n      sub\n      sub\n      dup2\n      mstore\n      swap1\n      0x40\n      mstore\n        /* \"contracts/Lottery.sol\":1078:1148  keccak256(abi.encodePacked(block.difficulty, block.timestamp, nextID)) */\n      dup1\n      mload\n      swap1\n      0x20\n      add\n      keccak256\n        /* \"contracts/Lottery.sol\":1073:1149  uint(keccak256(abi.encodePacked(block.difficulty, block.timestamp, nextID))) */\n      0x00\n      shr\n        /* \"contracts/Lottery.sol\":1066:1149  return uint(keccak256(abi.encodePacked(block.difficulty, block.timestamp, nextID))) */\n      swap1\n      pop\n        /* \"contracts/Lottery.sol\":1011:1157  function random() private view returns(uint){... */\n      swap1\n      jump\t// out\n    tag_83:\n      mload(0x40)\n      dup1\n      0x40\n      add\n      0x40\n      mstore\n      dup1\n      0x00\n      dup2\n      mstore\n      0x20\n      add\n      and(0xffffffffffffffffffffffffffffffffffffffff, 0x00)\n      dup2\n      mstore\n      pop\n      swap1\n      jump\t// out\n        /* \"#utility.yul\":7:187   */\n    tag_95:\n        /* \"#utility.yul\":55:132   */\n      0x4e487b7100000000000000000000000000000000000000000000000000000000\n        /* \"#utility.yul\":52:53   */\n      0x00\n        /* \"#utility.yul\":45:133   */\n      mstore\n        /* \"#utility.yul\":152:156   */\n      0x11\n        /* \"#utility.yul\":149:150   */\n      0x04\n        /* \"#utility.yul\":142:157   */\n      mstore\n        /* \"#utility.yul\":176:180   */\n      0x24\n        /* \"#utility.yul\":173:174   */\n      0x00\n        /* \"#utility.yul\":166:181   */\n      revert\n        /* \"#utility.yul\":193:270   */\n    tag_96:\n        /* \"#utility.yul\":230:237   */\n      0x00\n        /* \"#utility.yul\":259:264   */\n      dup2\n        /* \"#utility.yul\":248:264   */\n      swap1\n      pop\n        /* \"#utility.yul\":193:270   */\n      swap2\n      swap1\n      pop\n      jump\t// out\n        /* \"#utility.yul\":276:509   */\n    tag_16:\n        /* \"#utility.yul\":315:318   */\n      0x00\n        /* \"#utility.yul\":338:362   */\n      tag_128\n        /* \"#utility.yul\":356:361   */\n      dup3\n        /* \"#utility.yul\":338:362   */\n      tag_96\n      jump\t// in\n    tag_128:\n        /* \"#utility.yul\":329:362   */\n      swap2\n      pop\n        /* \"#utility.yul\":384:450   */\n      0xffffffffffffffffffffffffffffffffffffffffffffffffffffffffffffffff\n        /* \"#utility.yul\":377:382   */\n      dup3\n        /* \"#utility.yul\":374:451   */\n      sub\n        /* \"#utility.yul\":371:474   */\n      tag_129\n      jumpi\n        /* \"#utility.yul\":454:472   */\n      tag_130\n      tag_95\n      jump\t// in\n    tag_130:\n        /* \"#utility.yul\":371:474   */\n    tag_129:\n        /* \"#utility.yul\":501:502   */\n      0x01\n        /* \"#utility.yul\":494:499   */\n      dup3\n        /* \"#utility.yul\":490:503   */\n      add\n        /* \"#utility.yul\":483:503   */\n      swap1\n      pop\n        /* \"#utility.yul\":276:509   */\n      swap2\n      swap1\n      pop\n      jump\t// out\n        /* \"#utility.yul\":515:641   */\n    tag_97:\n        /* \"#utility.yul\":552:559   */\n      0x00\n        /* \"#utility.yul\":592:634   */\n      0xffffffffffffffffffffffffffffffffffffffff\n        /* \"#utility.yul\":585:590   */\n      dup3\n        /* \"#utility.yul\":581:635   */\n      and\n        /* \"#utility.yul\":570:635   */\n      swap1\n      pop\n        /* \"#utility.yul\":515:641   */\n      swap2\n      swap1\n      pop\n      jump\t// out\n        /* \"#utility.yul\":647:743   */\n    tag_98:\n        /* \"#utility.yul\":684:691   */\n      0x00\n        /* \"#utility.yul\":713:737   */\n      tag_133\n        /* \"#utility.yul\":731:736   */\n      dup3\n        /* \"#utility.yul\":713:737   */\n      tag_97\n      jump\t// in\n    tag_133:\n        /* \"#utility.yul\":702:737   */\n      swap1\n      pop\n        /* \"#utility.yul\":647:743   */\n      swap2\n      swap1\n      pop\n      jump\t// out\n        /* \"#utility.yul\":749:867   */\n    tag_99:\n        /* \"#utility.yul\":836:860   */\n      tag_135\n        /* \"#utility.yul\":854:859   */\n      dup2\n        /* \"#utility.yul\":836:860   */\n      tag_98\n      jump\t// in\n    tag_135:\n        /* \"#utility.yul\":831:834   */\n      dup3\n        /* \"#utility.yul\":824:861   */\n      mstore\n        /* \"#utility.yul\":749:867   */\n      pop\n      pop\n      jump\t// out\n        /* \"#utility.yul\":873:1095   */\n    tag_27:\n        /* \"#utility.yul\":966:970   */\n      0x00\n        /* \"#utility.yul\":1004:1006   */\n      0x20\n        /* \"#utility.yul\":993:1002   */\n      dup3\n        /* \"#utility.yul\":989:1007   */\n      add\n        /* \"#utility.yul\":981:1007   */\n      swap1\n      pop\n        /* \"#utility.yul\":1017:1088   */\n      tag_137\n        /* \"#utility.yul\":1085:1086   */\n      0x00\n        /* \"#utility.yul\":1074:1083   */\n      dup4\n        /* \"#utility.yul\":1070:1087   */\n      add\n        /* \"#utility.yul\":1061:1067   */\n      dup5\n        /* \"#utility.yul\":1017:1088   */\n      tag_99\n      jump\t// in\n    tag_137:\n        /* \"#utility.yul\":873:1095   */\n      swap3\n      swap2\n      pop\n      pop\n      jump\t// out\n        /* \"#utility.yul\":1101:1219   */\n    tag_100:\n        /* \"#utility.yul\":1188:1212   */\n      tag_139\n        /* \"#utility.yul\":1206:1211   */\n      dup2\n        /* \"#utility.yul\":1188:1212   */\n      tag_96\n      jump\t// in\n    tag_139:\n        /* \"#utility.yul\":1183:1186   */\n      dup3\n        /* \"#utility.yul\":1176:1213   */\n      mstore\n        /* \"#utility.yul\":1101:1219   */\n      pop\n      pop\n      jump\t// out\n        /* \"#utility.yul\":1225:1447   */\n    tag_32:\n        /* \"#utility.yul\":1318:1322   */\n      0x00\n        /* \"#utility.yul\":1356:1358   */\n      0x20\n        /* \"#utility.yul\":1345:1354   */\n      dup3\n        /* \"#utility.yul\":1341:1359   */\n      add\n        /* \"#utility.yul\":1333:1359   */\n      swap1\n      pop\n        /* \"#utility.yul\":1369:1440   */\n      tag_141\n        /* \"#utility.yul\":1437:1438   */\n      0x00\n        /* \"#utility.yul\":1426:1435   */\n      dup4\n        /* \"#utility.yul\":1422:1439   */\n      add\n        /* \"#utility.yul\":1413:1419   */\n      dup5\n        /* \"#utility.yul\":1369:1440   */\n      tag_100\n      jump\t// in\n    tag_141:\n        /* \"#utility.yul\":1225:1447   */\n      swap3\n      swap2\n      pop\n      pop\n      jump\t// out\n        /* \"#utility.yul\":1453:1557   */\n    tag_101:\n        /* \"#utility.yul\":1498:1505   */\n      0x00\n        /* \"#utility.yul\":1527:1551   */\n      tag_143\n        /* \"#utility.yul\":1545:1550   */\n      dup3\n        /* \"#utility.yul\":1527:1551   */\n      tag_97\n      jump\t// in\n    tag_143:\n        /* \"#utility.yul\":1516:1551   */\n      swap1\n      pop\n        /* \"#utility.yul\":1453:1557   */\n      swap2\n      swap1\n      pop\n      jump\t// out\n        /* \"#utility.yul\":1563:1705   */\n    tag_102:\n        /* \"#utility.yul\":1666:1698   */\n      tag_145\n        /* \"#utility.yul\":1692:1697   */\n      dup2\n        /* \"#utility.yul\":1666:1698   */\n      tag_101\n      jump\t// in\n    tag_145:\n        /* \"#utility.yul\":1661:1664   */\n      dup3\n        /* \"#utility.yul\":1654:1699   */\n      mstore\n        /* \"#utility.yul\":1563:1705   */\n      pop\n      pop\n      jump\t// out\n        /* \"#utility.yul\":1711:1965   */\n    tag_39:\n        /* \"#utility.yul\":1820:1824   */\n      0x00\n        /* \"#utility.yul\":1858:1860   */\n      0x20\n        /* \"#utility.yul\":1847:1856   */\n      dup3\n        /* \"#utility.yul\":1843:1861   */\n      add\n        /* \"#utility.yul\":1835:1861   */\n      swap1\n      pop\n        /* \"#utility.yul\":1871:1958   */\n      tag_147\n        /* \"#utility.yul\":1955:1956   */\n      0x00\n        /* \"#utility.yul\":1944:1953   */\n      dup4\n        /* \"#utility.yul\":1940:1957   */\n      add\n        /* \"#utility.yul\":1931:1937   */\n      dup5\n        /* \"#utility.yul\":1871:1958   */\n      tag_102\n      jump\t// in\n    tag_147:\n        /* \"#utility.yul\":1711:1965   */\n      swap3\n      swap2\n      pop\n      pop\n      jump\t// out\n        /* \"#utility.yul\":1971:2111   */\n    tag_103:\n        /* \"#utility.yul\":2064:2070   */\n      0x00\n        /* \"#utility.yul\":2098:2103   */\n      dup2\n        /* \"#utility.yul\":2092:2104   */\n      mload\n        /* \"#utility.yul\":2082:2104   */\n      swap1\n      pop\n        /* \"#utility.yul\":1971:2111   */\n      swap2\n      swap1\n      pop\n      jump\t// out\n        /* \"#utility.yul\":2117:2327   */\n    tag_104:\n        /* \"#utility.yul\":2242:2253   */\n      0x00\n        /* \"#utility.yul\":2276:2282   */\n      dup3\n        /* \"#utility.yul\":2271:2274   */\n      dup3\n        /* \"#utility.yul\":2264:2283   */\n      mstore\n        /* \"#utility.yul\":2316:2320   */\n      0x20\n        /* \"#utility.yul\":2311:2314   */\n      dup3\n        /* \"#utility.yul\":2307:2321   */\n      add\n        /* \"#utility.yul\":2292:2321   */\n      swap1\n      pop\n        /* \"#utility.yul\":2117:2327   */\n      swap3\n      swap2\n      pop\n      pop\n      jump\t// out\n        /* \"#utility.yul\":2333:2491   */\n    tag_105:\n        /* \"#utility.yul\":2426:2430   */\n      0x00\n        /* \"#utility.yul\":2449:2452   */\n      dup2\n        /* \"#utility.yul\":2441:2452   */\n      swap1\n      pop\n        /* \"#utility.yul\":2479:2483   */\n      0x20\n        /* \"#utility.yul\":2474:2477   */\n      dup3\n        /* \"#utility.yul\":2470:2484   */\n      add\n        /* \"#utility.yul\":2462:2484   */\n      swap1\n      pop\n        /* \"#utility.yul\":2333:2491   */\n      swap2\n      swap1\n      pop\n      jump\t// out\n        /* \"#utility.yul\":2497:2605   */\n    tag_106:\n        /* \"#utility.yul\":2574:2598   */\n      tag_152\n        /* \"#utility.yul\":2592:2597   */\n      dup2\n        /* \"#utility.yul\":2574:2598   */\n      tag_96\n      jump\t// in\n    tag_152:\n        /* \"#utility.yul\":2569:2572   */\n      dup3\n        /* \"#utility.yul\":2562:2599   */\n      mstore\n        /* \"#utility.yul\":2497:2605   */\n      pop\n      pop\n      jump\t// out\n        /* \"#utility.yul\":2611:2743   */\n    tag_107:\n        /* \"#utility.yul\":2704:2736   */\n      tag_154\n        /* \"#utility.yul\":2730:2735   */\n      dup2\n        /* \"#utility.yul\":2704:2736   */\n      tag_101\n      jump\t// in\n    tag_154:\n        /* \"#utility.yul\":2699:2702   */\n      dup3\n        /* \"#utility.yul\":2692:2737   */\n      mstore\n        /* \"#utility.yul\":2611:2743   */\n      pop\n      pop\n      jump\t// out\n        /* \"#utility.yul\":2813:3336   */\n    tag_108:\n        /* \"#utility.yul\":2952:2956   */\n      0x40\n        /* \"#utility.yul\":2947:2950   */\n      dup3\n        /* \"#utility.yul\":2943:2957   */\n      add\n        /* \"#utility.yul\":3037:3041   */\n      0x00\n        /* \"#utility.yul\":3030:3035   */\n      dup3\n        /* \"#utility.yul\":3026:3042   */\n      add\n        /* \"#utility.yul\":3020:3043   */\n      mload\n        /* \"#utility.yul\":3056:3119   */\n      tag_156\n        /* \"#utility.yul\":3113:3117   */\n      0x00\n        /* \"#utility.yul\":3108:3111   */\n      dup6\n        /* \"#utility.yul\":3104:3118   */\n      add\n        /* \"#utility.yul\":3090:3102   */\n      dup3\n        /* \"#utility.yul\":3056:3119   */\n      tag_106\n      jump\t// in\n    tag_156:\n        /* \"#utility.yul\":2967:3129   */\n      pop\n        /* \"#utility.yul\":3221:3225   */\n      0x20\n        /* \"#utility.yul\":3214:3219   */\n      dup3\n        /* \"#utility.yul\":3210:3226   */\n      add\n        /* \"#utility.yul\":3204:3227   */\n      mload\n        /* \"#utility.yul\":3240:3319   */\n      tag_157\n        /* \"#utility.yul\":3313:3317   */\n      0x20\n        /* \"#utility.yul\":3308:3311   */\n      dup6\n        /* \"#utility.yul\":3304:3318   */\n      add\n        /* \"#utility.yul\":3290:3302   */\n      dup3\n        /* \"#utility.yul\":3240:3319   */\n      tag_107\n      jump\t// in\n    tag_157:\n        /* \"#utility.yul\":3139:3329   */\n      pop\n        /* \"#utility.yul\":2921:3336   */\n      pop\n        /* \"#utility.yul\":2813:3336   */\n      pop\n      pop\n      jump\t// out\n        /* \"#utility.yul\":3342:3625   */\n    tag_109:\n        /* \"#utility.yul\":3463:3473   */\n      0x00\n        /* \"#utility.yul\":3484:3582   */\n      tag_159\n        /* \"#utility.yul\":3578:3581   */\n      dup4\n        /* \"#utility.yul\":3570:3576   */\n      dup4\n        /* \"#utility.yul\":3484:3582   */\n      tag_108\n      jump\t// in\n    tag_159:\n        /* \"#utility.yul\":3614:3618   */\n      0x40\n        /* \"#utility.yul\":3609:3612   */\n      dup4\n        /* \"#utility.yul\":3605:3619   */\n      add\n        /* \"#utility.yul\":3591:3619   */\n      swap1\n      pop\n        /* \"#utility.yul\":3342:3625   */\n      swap3\n      swap2\n      pop\n      pop\n      jump\t// out\n        /* \"#utility.yul\":3631:3770   */\n    tag_110:\n        /* \"#utility.yul\":3727:3731   */\n      0x00\n        /* \"#utility.yul\":3759:3763   */\n      0x20\n        /* \"#utility.yul\":3754:3757   */\n      dup3\n        /* \"#utility.yul\":3750:3764   */\n      add\n        /* \"#utility.yul\":3742:3764   */\n      swap1\n      pop\n        /* \"#utility.yul\":3631:3770   */\n      swap2\n      swap1\n      pop\n      jump\t// out\n        /* \"#utility.yul\":3844:4784   */\n    tag_111:\n        /* \"#utility.yul\":4015:4018   */\n      0x00\n        /* \"#utility.yul\":4044:4124   */\n      tag_162\n        /* \"#utility.yul\":4118:4123   */\n      dup3\n        /* \"#utility.yul\":4044:4124   */\n      tag_103\n      jump\t// in\n    tag_162:\n        /* \"#utility.yul\":4140:4252   */\n      tag_163\n        /* \"#utility.yul\":4245:4251   */\n      dup2\n        /* \"#utility.yul\":4240:4243   */\n      dup6\n        /* \"#utility.yul\":4140:4252   */\n      tag_104\n      jump\t// in\n    tag_163:\n        /* \"#utility.yul\":4133:4252   */\n      swap4\n      pop\n        /* \"#utility.yul\":4276:4358   */\n      tag_164\n        /* \"#utility.yul\":4352:4357   */\n      dup4\n        /* \"#utility.yul\":4276:4358   */\n      tag_105\n      jump\t// in\n    tag_164:\n        /* \"#utility.yul\":4381:4388   */\n      dup1\n        /* \"#utility.yul\":4412:4413   */\n      0x00\n        /* \"#utility.yul\":4397:4759   */\n    tag_165:\n        /* \"#utility.yul\":4422:4428   */\n      dup4\n        /* \"#utility.yul\":4419:4420   */\n      dup2\n        /* \"#utility.yul\":4416:4429   */\n      lt\n        /* \"#utility.yul\":4397:4759   */\n      iszero\n      tag_167\n      jumpi\n        /* \"#utility.yul\":4498:4504   */\n      dup2\n        /* \"#utility.yul\":4492:4505   */\n      mload\n        /* \"#utility.yul\":4525:4640   */\n      tag_168\n        /* \"#utility.yul\":4636:4639   */\n      dup9\n        /* \"#utility.yul\":4621:4634   */\n      dup3\n        /* \"#utility.yul\":4525:4640   */\n      tag_109\n      jump\t// in\n    tag_168:\n        /* \"#utility.yul\":4518:4640   */\n      swap8\n      pop\n        /* \"#utility.yul\":4663:4749   */\n      tag_169\n        /* \"#utility.yul\":4742:4748   */\n      dup4\n        /* \"#utility.yul\":4663:4749   */\n      tag_110\n      jump\t// in\n    tag_169:\n        /* \"#utility.yul\":4653:4749   */\n      swap3\n      pop\n        /* \"#utility.yul\":4457:4759   */\n      pop\n        /* \"#utility.yul\":4444:4445   */\n      0x01\n        /* \"#utility.yul\":4441:4442   */\n      dup2\n        /* \"#utility.yul\":4437:4446   */\n      add\n        /* \"#utility.yul\":4432:4446   */\n      swap1\n      pop\n        /* \"#utility.yul\":4397:4759   */\n      jump(tag_165)\n    tag_167:\n        /* \"#utility.yul\":4401:4415   */\n      pop\n        /* \"#utility.yul\":4775:4778   */\n      dup6\n        /* \"#utility.yul\":4768:4778   */\n      swap4\n      pop\n        /* \"#utility.yul\":4020:4784   */\n      pop\n      pop\n      pop\n        /* \"#utility.yul\":3844:4784   */\n      swap3\n      swap2\n      pop\n      pop\n      jump\t// out\n        /* \"#utility.yul\":4790:5267   */\n    tag_44:\n        /* \"#utility.yul\":4985:4989   */\n      0x00\n        /* \"#utility.yul\":5023:5025   */\n      0x20\n        /* \"#utility.yul\":5012:5021   */\n      dup3\n        /* \"#utility.yul\":5008:5026   */\n      add\n        /* \"#utility.yul\":5000:5026   */\n      swap1\n      pop\n        /* \"#utility.yul\":5072:5081   */\n      dup2\n        /* \"#utility.yul\":5066:5070   */\n      dup2\n        /* \"#utility.yul\":5062:5082   */\n      sub\n        /* \"#utility.yul\":5058:5059   */\n      0x00\n        /* \"#utility.yul\":5047:5056   */\n      dup4\n        /* \"#utility.yul\":5043:5060   */\n      add\n        /* \"#utility.yul\":5036:5083   */\n      mstore\n        /* \"#utility.yul\":5100:5260   */\n      tag_171\n        /* \"#utility.yul\":5255:5259   */\n      dup2\n        /* \"#utility.yul\":5246:5252   */\n      dup5\n        /* \"#utility.yul\":5100:5260   */\n      tag_111\n      jump\t// in\n    tag_171:\n        /* \"#utility.yul\":5092:5260   */\n      swap1\n      pop\n        /* \"#utility.yul\":4790:5267   */\n      swap3\n      swap2\n      pop\n      pop\n      jump\t// out\n        /* \"#utility.yul\":5273:5442   */\n    tag_112:\n        /* \"#utility.yul\":5357:5368   */\n      0x00\n        /* \"#utility.yul\":5391:5397   */\n      dup3\n        /* \"#utility.yul\":5386:5389   */\n      dup3\n        /* \"#utility.yul\":5379:5398   */\n      mstore\n        /* \"#utility.yul\":5431:5435   */\n      0x20\n        /* \"#utility.yul\":5426:5429   */\n      dup3\n        /* \"#utility.yul\":5422:5436   */\n      add\n        /* \"#utility.yul\":5407:5436   */\n      swap1\n      pop\n        /* \"#utility.yul\":5273:5442   */\n      swap3\n      swap2\n      pop\n      pop\n      jump\t// out\n        /* \"#utility.yul\":5448:5680   */\n    tag_113:\n        /* \"#utility.yul\":5588:5622   */\n      0x596f7520617265206e6f7420616c6c6f77656420746f20646f20746869732066\n        /* \"#utility.yul\":5584:5585   */\n      0x00\n        /* \"#utility.yul\":5576:5582   */\n      dup3\n        /* \"#utility.yul\":5572:5586   */\n      add\n        /* \"#utility.yul\":5565:5623   */\n      mstore\n        /* \"#utility.yul\":5657:5672   */\n      0x756e6374696f6e616c6974792100000000000000000000000000000000000000\n        /* \"#utility.yul\":5652:5654   */\n      0x20\n        /* \"#utility.yul\":5644:5650   */\n      dup3\n        /* \"#utility.yul\":5640:5655   */\n      add\n        /* \"#utility.yul\":5633:5673   */\n      mstore\n        /* \"#utility.yul\":5448:5680   */\n      pop\n      jump\t// out\n        /* \"#utility.yul\":5686:6052   */\n    tag_114:\n        /* \"#utility.yul\":5828:5831   */\n      0x00\n        /* \"#utility.yul\":5849:5916   */\n      tag_175\n        /* \"#utility.yul\":5913:5915   */\n      0x2d\n        /* \"#utility.yul\":5908:5911   */\n      dup4\n        /* \"#utility.yul\":5849:5916   */\n      tag_112\n      jump\t// in\n    tag_175:\n        /* \"#utility.yul\":5842:5916   */\n      swap2\n      pop\n        /* \"#utility.yul\":5925:6018   */\n      tag_176\n        /* \"#utility.yul\":6014:6017   */\n      dup3\n        /* \"#utility.yul\":5925:6018   */\n      tag_113\n      jump\t// in\n    tag_176:\n        /* \"#utility.yul\":6043:6045   */\n      0x40\n        /* \"#utility.yul\":6038:6041   */\n      dup3\n        /* \"#utility.yul\":6034:6046   */\n      add\n        /* \"#utility.yul\":6027:6046   */\n      swap1\n      pop\n        /* \"#utility.yul\":5686:6052   */\n      swap2\n      swap1\n      pop\n      jump\t// out\n        /* \"#utility.yul\":6058:6477   */\n    tag_48:\n        /* \"#utility.yul\":6224:6228   */\n      0x00\n        /* \"#utility.yul\":6262:6264   */\n      0x20\n        /* \"#utility.yul\":6251:6260   */\n      dup3\n        /* \"#utility.yul\":6247:6265   */\n      add\n        /* \"#utility.yul\":6239:6265   */\n      swap1\n      pop\n        /* \"#utility.yul\":6311:6320   */\n      dup2\n        /* \"#utility.yul\":6305:6309   */\n      dup2\n        /* \"#utility.yul\":6301:6321   */\n      sub\n        /* \"#utility.yul\":6297:6298   */\n      0x00\n        /* \"#utility.yul\":6286:6295   */\n      dup4\n        /* \"#utility.yul\":6282:6299   */\n      add\n        /* \"#utility.yul\":6275:6322   */\n      mstore\n        /* \"#utility.yul\":6339:6470   */\n      tag_178\n        /* \"#utility.yul\":6465:6469   */\n      dup2\n        /* \"#utility.yul\":6339:6470   */\n      tag_114\n      jump\t// in\n    tag_178:\n        /* \"#utility.yul\":6331:6470   */\n      swap1\n      pop\n        /* \"#utility.yul\":6058:6477   */\n      swap2\n      swap1\n      pop\n      jump\t// out\n        /* \"#utility.yul\":6483:6663   */\n    tag_115:\n        /* \"#utility.yul\":6531:6608   */\n      0x4e487b7100000000000000000000000000000000000000000000000000000000\n        /* \"#utility.yul\":6528:6529   */\n      0x00\n        /* \"#utility.yul\":6521:6609   */\n      mstore\n        /* \"#utility.yul\":6628:6632   */\n      0x12\n        /* \"#utility.yul\":6625:6626   */\n      0x04\n        /* \"#utility.yul\":6618:6633   */\n      mstore\n        /* \"#utility.yul\":6652:6656   */\n      0x24\n        /* \"#utility.yul\":6649:6650   */\n      0x00\n        /* \"#utility.yul\":6642:6657   */\n      revert\n        /* \"#utility.yul\":6669:6845   */\n    tag_54:\n        /* \"#utility.yul\":6701:6702   */\n      0x00\n        /* \"#utility.yul\":6718:6738   */\n      tag_181\n        /* \"#utility.yul\":6736:6737   */\n      dup3\n        /* \"#utility.yul\":6718:6738   */\n      tag_96\n      jump\t// in\n    tag_181:\n        /* \"#utility.yul\":6713:6738   */\n      swap2\n      pop\n        /* \"#utility.yul\":6752:6772   */\n      tag_182\n        /* \"#utility.yul\":6770:6771   */\n      dup4\n        /* \"#utility.yul\":6752:6772   */\n      tag_96\n      jump\t// in\n    tag_182:\n        /* \"#utility.yul\":6747:6772   */\n      swap3\n      pop\n        /* \"#utility.yul\":6791:6792   */\n      dup3\n        /* \"#utility.yul\":6781:6816   */\n      tag_183\n      jumpi\n        /* \"#utility.yul\":6796:6814   */\n      tag_184\n      tag_115\n      jump\t// in\n    tag_184:\n        /* \"#utility.yul\":6781:6816   */\n    tag_183:\n        /* \"#utility.yul\":6837:6838   */\n      dup3\n        /* \"#utility.yul\":6834:6835   */\n      dup3\n        /* \"#utility.yul\":6830:6839   */\n      mod\n        /* \"#utility.yul\":6825:6839   */\n      swap1\n      pop\n        /* \"#utility.yul\":6669:6845   */\n      swap3\n      swap2\n      pop\n      pop\n      jump\t// out\n        /* \"#utility.yul\":6851:7020   */\n    tag_116:\n        /* \"#utility.yul\":6991:7012   */\n      0x596f7520617265206e6f74206d616e6167657200000000000000000000000000\n        /* \"#utility.yul\":6987:6988   */\n      0x00\n        /* \"#utility.yul\":6979:6985   */\n      dup3\n        /* \"#utility.yul\":6975:6989   */\n      add\n        /* \"#utility.yul\":6968:7013   */\n      mstore\n        /* \"#utility.yul\":6851:7020   */\n      pop\n      jump\t// out\n        /* \"#utility.yul\":7026:7392   */\n    tag_117:\n        /* \"#utility.yul\":7168:7171   */\n      0x00\n        /* \"#utility.yul\":7189:7256   */\n      tag_187\n        /* \"#utility.yul\":7253:7255   */\n      0x13\n        /* \"#utility.yul\":7248:7251   */\n      dup4\n        /* \"#utility.yul\":7189:7256   */\n      tag_112\n      jump\t// in\n    tag_187:\n        /* \"#utility.yul\":7182:7256   */\n      swap2\n      pop\n        /* \"#utility.yul\":7265:7358   */\n      tag_188\n        /* \"#utility.yul\":7354:7357   */\n      dup3\n        /* \"#utility.yul\":7265:7358   */\n      tag_116\n      jump\t// in\n    tag_188:\n        /* \"#utility.yul\":7383:7385   */\n      0x20\n        /* \"#utility.yul\":7378:7381   */\n      dup3\n        /* \"#utility.yul\":7374:7386   */\n      add\n        /* \"#utility.yul\":7367:7386   */\n      swap1\n      pop\n        /* \"#utility.yul\":7026:7392   */\n      swap2\n      swap1\n      pop\n      jump\t// out\n        /* \"#utility.yul\":7398:7817   */\n    tag_67:\n        /* \"#utility.yul\":7564:7568   */\n      0x00\n        /* \"#utility.yul\":7602:7604   */\n      0x20\n        /* \"#utility.yul\":7591:7600   */\n      dup3\n        /* \"#utility.yul\":7587:7605   */\n      add\n        /* \"#utility.yul\":7579:7605   */\n      swap1\n      pop\n        /* \"#utility.yul\":7651:7660   */\n      dup2\n        /* \"#utility.yul\":7645:7649   */\n      dup2\n        /* \"#utility.yul\":7641:7661   */\n      sub\n        /* \"#utility.yul\":7637:7638   */\n      0x00\n        /* \"#utility.yul\":7626:7635   */\n      dup4\n        /* \"#utility.yul\":7622:7639   */\n      add\n        /* \"#utility.yul\":7615:7662   */\n      mstore\n        /* \"#utility.yul\":7679:7810   */\n      tag_190\n        /* \"#utility.yul\":7805:7809   */\n      dup2\n        /* \"#utility.yul\":7679:7810   */\n      tag_117\n      jump\t// in\n    tag_190:\n        /* \"#utility.yul\":7671:7810   */\n      swap1\n      pop\n        /* \"#utility.yul\":7398:7817   */\n      swap2\n      swap1\n      pop\n      jump\t// out\n        /* \"#utility.yul\":7823:7988   */\n    tag_118:\n        /* \"#utility.yul\":7963:7980   */\n      0x596f7520617265206d616e616765720000000000000000000000000000000000\n        /* \"#utility.yul\":7959:7960   */\n      0x00\n        /* \"#utility.yul\":7951:7957   */\n      dup3\n        /* \"#utility.yul\":7947:7961   */\n      add\n        /* \"#utility.yul\":7940:7981   */\n      mstore\n        /* \"#utility.yul\":7823:7988   */\n      pop\n      jump\t// out\n        /* \"#utility.yul\":7994:8360   */\n    tag_119:\n        /* \"#utility.yul\":8136:8139   */\n      0x00\n        /* \"#utility.yul\":8157:8224   */\n      tag_193\n        /* \"#utility.yul\":8221:8223   */\n      0x0f\n        /* \"#utility.yul\":8216:8219   */\n      dup4\n        /* \"#utility.yul\":8157:8224   */\n      tag_112\n      jump\t// in\n    tag_193:\n        /* \"#utility.yul\":8150:8224   */\n      swap2\n      pop\n        /* \"#utility.yul\":8233:8326   */\n      tag_194\n        /* \"#utility.yul\":8322:8325   */\n      dup3\n        /* \"#utility.yul\":8233:8326   */\n      tag_118\n      jump\t// in\n    tag_194:\n        /* \"#utility.yul\":8351:8353   */\n      0x20\n        /* \"#utility.yul\":8346:8349   */\n      dup3\n        /* \"#utility.yul\":8342:8354   */\n      add\n        /* \"#utility.yul\":8335:8354   */\n      swap1\n      pop\n        /* \"#utility.yul\":7994:8360   */\n      swap2\n      swap1\n      pop\n      jump\t// out\n        /* \"#utility.yul\":8366:8785   */\n    tag_71:\n        /* \"#utility.yul\":8532:8536   */\n      0x00\n        /* \"#utility.yul\":8570:8572   */\n      0x20\n        /* \"#utility.yul\":8559:8568   */\n      dup3\n        /* \"#utility.yul\":8555:8573   */\n      add\n        /* \"#utility.yul\":8547:8573   */\n      swap1\n      pop\n        /* \"#utility.yul\":8619:8628   */\n      dup2\n        /* \"#utility.yul\":8613:8617   */\n      dup2\n        /* \"#utility.yul\":8609:8629   */\n      sub\n        /* \"#utility.yul\":8605:8606   */\n      0x00\n        /* \"#utility.yul\":8594:8603   */\n      dup4\n        /* \"#utility.yul\":8590:8607   */\n      add\n        /* \"#utility.yul\":8583:8630   */\n      mstore\n        /* \"#utility.yul\":8647:8778   */\n      tag_196\n        /* \"#utility.yul\":8773:8777   */\n      dup2\n        /* \"#utility.yul\":8647:8778   */\n      tag_119\n      jump\t// in\n    tag_196:\n        /* \"#utility.yul\":8639:8778   */\n      swap1\n      pop\n        /* \"#utility.yul\":8366:8785   */\n      swap2\n      swap1\n      pop\n      jump\t// out\n        /* \"#utility.yul\":8791:8964   */\n    tag_120:\n        /* \"#utility.yul\":8931:8956   */\n      0x456e7465722076616c6964207469636b65742073697a65000000000000000000\n        /* \"#utility.yul\":8927:8928   */\n      0x00\n        /* \"#utility.yul\":8919:8925   */\n      dup3\n        /* \"#utility.yul\":8915:8929   */\n      add\n        /* \"#utility.yul\":8908:8957   */\n      mstore\n        /* \"#utility.yul\":8791:8964   */\n      pop\n      jump\t// out\n        /* \"#utility.yul\":8970:9336   */\n    tag_121:\n        /* \"#utility.yul\":9112:9115   */\n      0x00\n        /* \"#utility.yul\":9133:9200   */\n      tag_199\n        /* \"#utility.yul\":9197:9199   */\n      0x17\n        /* \"#utility.yul\":9192:9195   */\n      dup4\n        /* \"#utility.yul\":9133:9200   */\n      tag_112\n      jump\t// in\n    tag_199:\n        /* \"#utility.yul\":9126:9200   */\n      swap2\n      pop\n        /* \"#utility.yul\":9209:9302   */\n      tag_200\n        /* \"#utility.yul\":9298:9301   */\n      dup3\n        /* \"#utility.yul\":9209:9302   */\n      tag_120\n      jump\t// in\n    tag_200:\n        /* \"#utility.yul\":9327:9329   */\n      0x20\n        /* \"#utility.yul\":9322:9325   */\n      dup3\n        /* \"#utility.yul\":9318:9330   */\n      add\n        /* \"#utility.yul\":9311:9330   */\n      swap1\n      pop\n        /* \"#utility.yul\":8970:9336   */\n      swap2\n      swap1\n      pop\n      jump\t// out\n        /* \"#utility.yul\":9342:9761   */\n    tag_74:\n        /* \"#utility.yul\":9508:9512   */\n      0x00\n        /* \"#utility.yul\":9546:9548   */\n      0x20\n        /* \"#utility.yul\":9535:9544   */\n      dup3\n        /* \"#utility.yul\":9531:9549   */\n      add\n        /* \"#utility.yul\":9523:9549   */\n      swap1\n      pop\n        /* \"#utility.yul\":9595:9604   */\n      dup2\n        /* \"#utility.yul\":9589:9593   */\n      dup2\n        /* \"#utility.yul\":9585:9605   */\n      sub\n        /* \"#utility.yul\":9581:9582   */\n      0x00\n        /* \"#utility.yul\":9570:9579   */\n      dup4\n        /* \"#utility.yul\":9566:9583   */\n      add\n        /* \"#utility.yul\":9559:9606   */\n      mstore\n        /* \"#utility.yul\":9623:9754   */\n      tag_202\n        /* \"#utility.yul\":9749:9753   */\n      dup2\n        /* \"#utility.yul\":9623:9754   */\n      tag_121\n      jump\t// in\n    tag_202:\n        /* \"#utility.yul\":9615:9754   */\n      swap1\n      pop\n        /* \"#utility.yul\":9342:9761   */\n      swap2\n      swap1\n      pop\n      jump\t// out\n        /* \"#utility.yul\":9767:9947   */\n    tag_79:\n        /* \"#utility.yul\":9815:9892   */\n      0x4e487b7100000000000000000000000000000000000000000000000000000000\n        /* \"#utility.yul\":9812:9813   */\n      0x00\n        /* \"#utility.yul\":9805:9893   */\n      mstore\n        /* \"#utility.yul\":9912:9916   */\n      0x41\n        /* \"#utility.yul\":9909:9910   */\n      0x04\n        /* \"#utility.yul\":9902:9917   */\n      mstore\n        /* \"#utility.yul\":9936:9940   */\n      0x24\n        /* \"#utility.yul\":9933:9934   */\n      0x00\n        /* \"#utility.yul\":9926:9941   */\n      revert\n        /* \"#utility.yul\":9953:10133   */\n    tag_90:\n        /* \"#utility.yul\":10001:10078   */\n      0x4e487b7100000000000000000000000000000000000000000000000000000000\n        /* \"#utility.yul\":9998:9999   */\n      0x00\n        /* \"#utility.yul\":9991:10079   */\n      mstore\n        /* \"#utility.yul\":10098:10102   */\n      0x32\n        /* \"#utility.yul\":10095:10096   */\n      0x04\n        /* \"#utility.yul\":10088:10103   */\n      mstore\n        /* \"#utility.yul\":10122:10126   */\n      0x24\n        /* \"#utility.yul\":10119:10120   */\n      0x00\n        /* \"#utility.yul\":10112:10127   */\n      revert\n        /* \"#utility.yul\":10139:10218   */\n    tag_122:\n        /* \"#utility.yul\":10178:10185   */\n      0x00\n        /* \"#utility.yul\":10207:10212   */\n      dup2\n        /* \"#utility.yul\":10196:10212   */\n      swap1\n      pop\n        /* \"#utility.yul\":10139:10218   */\n      swap2\n      swap1\n      pop\n      jump\t// out\n        /* \"#utility.yul\":10224:10381   */\n    tag_123:\n        /* \"#utility.yul\":10329:10374   */\n      tag_207\n        /* \"#utility.yul\":10349:10373   */\n      tag_208\n        /* \"#utility.yul\":10367:10372   */\n      dup3\n        /* \"#utility.yul\":10349:10373   */\n      tag_96\n      jump\t// in\n    tag_208:\n        /* \"#utility.yul\":10329:10374   */\n      tag_122\n      jump\t// in\n    tag_207:\n        /* \"#utility.yul\":10324:10327   */\n      dup3\n        /* \"#utility.yul\":10317:10375   */\n      mstore\n        /* \"#utility.yul\":10224:10381   */\n      pop\n      pop\n      jump\t// out\n        /* \"#utility.yul\":10387:10925   */\n    tag_94:\n        /* \"#utility.yul\":10555:10558   */\n      0x00\n        /* \"#utility.yul\":10570:10645   */\n      tag_210\n        /* \"#utility.yul\":10641:10644   */\n      dup3\n        /* \"#utility.yul\":10632:10638   */\n      dup7\n        /* \"#utility.yul\":10570:10645   */\n      tag_123\n      jump\t// in\n    tag_210:\n        /* \"#utility.yul\":10670:10672   */\n      0x20\n        /* \"#utility.yul\":10665:10668   */\n      dup3\n        /* \"#utility.yul\":10661:10673   */\n      add\n        /* \"#utility.yul\":10654:10673   */\n      swap2\n      pop\n        /* \"#utility.yul\":10683:10758   */\n      tag_211\n        /* \"#utility.yul\":10754:10757   */\n      dup3\n        /* \"#utility.yul\":10745:10751   */\n      dup6\n        /* \"#utility.yul\":10683:10758   */\n      tag_123\n      jump\t// in\n    tag_211:\n        /* \"#utility.yul\":10783:10785   */\n      0x20\n        /* \"#utility.yul\":10778:10781   */\n      dup3\n        /* \"#utility.yul\":10774:10786   */\n      add\n        /* \"#utility.yul\":10767:10786   */\n      swap2\n      pop\n        /* \"#utility.yul\":10796:10871   */\n      tag_212\n        /* \"#utility.yul\":10867:10870   */\n      dup3\n        /* \"#utility.yul\":10858:10864   */\n      dup5\n        /* \"#utility.yul\":10796:10871   */\n      tag_123\n      jump\t// in\n    tag_212:\n        /* \"#utility.yul\":10896:10898   */\n      0x20\n        /* \"#utility.yul\":10891:10894   */\n      dup3\n        /* \"#utility.yul\":10887:10899   */\n      add\n        /* \"#utility.yul\":10880:10899   */\n      swap2\n      pop\n        /* \"#utility.yul\":10916:10919   */\n      dup2\n        /* \"#utility.yul\":10909:10919   */\n      swap1\n      pop\n        /* \"#utility.yul\":10387:10925   */\n      swap5\n      swap4\n      pop\n      pop\n      pop\n      pop\n      jump\t// out\n\n    auxdata: 0xa26469706673582212209a237d0b78ad32b1a1c1045e09afec68af83d6cc9d4bd1188001cbfdb9c7e9fa64736f6c63430008120033\n}\n",
				"bytecode": {
					"linkReferences": {},
					"object": "608060405234801561001057600080fd5b5033600260006101000a81548173ffffffffffffffffffffffffffffffffffffffff021916908373ffffffffffffffffffffffffffffffffffffffff160217905550610f18806100616000396000f3fe6080604052600436106100595760003560e01c806333a99e04146101cd578063481c6a75146101e4578063af5bc7b51461020f578063ccfc811b1461023a578063dfbf53ae14610244578063e97c125f1461026f576101bf565b366101bf57670de0b6b3a7640000341415806100c35750600260009054906101000a900473ffffffffffffffffffffffffffffffffffffffff1673ffffffffffffffffffffffffffffffffffffffff163373ffffffffffffffffffffffffffffffffffffffff1614155b15610110573373ffffffffffffffffffffffffffffffffffffffff166108fc349081150290604051600060405180830381858888f1935050505015801561010e573d6000803e3d6000fd5b505b604051806040016040528060035481526020013373ffffffffffffffffffffffffffffffffffffffff168152506001600060035481526020019081526020016000206000820151816000015560208201518160010160006101000a81548173ffffffffffffffffffffffffffffffffffffffff021916908373ffffffffffffffffffffffffffffffffffffffff160217905550905050600360008154809291906101b9906109b7565b91905055005b3480156101cb57600080fd5b005b3480156101d957600080fd5b506101e261029a565b005b3480156101f057600080fd5b506101f96104ef565b6040516102069190610a40565b60405180910390f35b34801561021b57600080fd5b50610224610515565b6040516102319190610a6a565b60405180910390f35b61024261063d565b005b34801561025057600080fd5b506102596107c7565b6040516102669190610aa6565b60405180910390f35b34801561027b57600080fd5b506102846107eb565b6040516102919190610bbd565b60405180910390f35b600260009054906101000a900473ffffffffffffffffffffffffffffffffffffffff1673ffffffffffffffffffffffffffffffffffffffff163373ffffffffffffffffffffffffffffffffffffffff161461032a576040517f08c379a000000000000000000000000000000000000000000000000000000000815260040161032190610c62565b60405180910390fd5b60038054101561033957600080fd5b6000600354610346610917565b6103509190610cb1565b90506001600082815260200190815260200160002060010160009054906101000a900473ffffffffffffffffffffffffffffffffffffffff166000806101000a81548173ffffffffffffffffffffffffffffffffffffffff021916908373ffffffffffffffffffffffffffffffffffffffff16021790555060008054906101000a900473ffffffffffffffffffffffffffffffffffffffff1673ffffffffffffffffffffffffffffffffffffffff166108fc479081150290604051600060405180830381858888f1935050505015801561042e573d6000803e3d6000fd5b5060005b6003548110156104e357604051806040016040528060008152602001600073ffffffffffffffffffffffffffffffffffffffff16815250600160008381526020019081526020016000206000820151816000015560208201518160010160006101000a81548173ffffffffffffffffffffffffffffffffffffffff021916908373ffffffffffffffffffffffffffffffffffffffff16021790555090505080806104db906109b7565b915050610432565b50600060038190555050565b600260009054906101000a900473ffffffffffffffffffffffffffffffffffffffff1681565b6000600260009054906101000a900473ffffffffffffffffffffffffffffffffffffffff1673ffffffffffffffffffffffffffffffffffffffff163373ffffffffffffffffffffffffffffffffffffffff16146105a7576040517f08c379a000000000000000000000000000000000000000000000000000000000815260040161059e90610c62565b60405180910390fd5b600260009054906101000a900473ffffffffffffffffffffffffffffffffffffffff1673ffffffffffffffffffffffffffffffffffffffff163373ffffffffffffffffffffffffffffffffffffffff1614610637576040517f08c379a000000000000000000000000000000000000000000000000000000000815260040161062e90610d2e565b60405180910390fd5b47905090565b600260009054906101000a900473ffffffffffffffffffffffffffffffffffffffff1673ffffffffffffffffffffffffffffffffffffffff163373ffffffffffffffffffffffffffffffffffffffff16036106cd576040517f08c379a00000000000000000000000000000000000000000000000000000000081526004016106c490610d9a565b60405180910390fd5b670de0b6b3a76400003414610717576040517f08c379a000000000000000000000000000000000000000000000000000000000815260040161070e90610e06565b60405180910390fd5b604051806040016040528060035481526020013373ffffffffffffffffffffffffffffffffffffffff168152506001600060035481526020019081526020016000206000820151816000015560208201518160010160006101000a81548173ffffffffffffffffffffffffffffffffffffffff021916908373ffffffffffffffffffffffffffffffffffffffff160217905550905050600360008154809291906107c0906109b7565b9190505550565b60008054906101000a900473ffffffffffffffffffffffffffffffffffffffff1681565b6060600060035467ffffffffffffffff81111561080b5761080a610e26565b5b60405190808252806020026020018201604052801561084457816020015b61083161094e565b8152602001906001900390816108295790505b50905061084f61094e565b60005b60035481101561090e5760016000828152602001908152602001600020604051806040016040529081600082015481526020016001820160009054906101000a900473ffffffffffffffffffffffffffffffffffffffff1673ffffffffffffffffffffffffffffffffffffffff1673ffffffffffffffffffffffffffffffffffffffff16815250509150818382815181106108f0576108ef610e55565b5b60200260200101819052508080610906906109b7565b915050610852565b50819250505090565b6000444260035460405160200161093093929190610ea5565b6040516020818303038152906040528051906020012060001c905090565b604051806040016040528060008152602001600073ffffffffffffffffffffffffffffffffffffffff1681525090565b7f4e487b7100000000000000000000000000000000000000000000000000000000600052601160045260246000fd5b6000819050919050565b60006109c2826109ad565b91507fffffffffffffffffffffffffffffffffffffffffffffffffffffffffffffffff82036109f4576109f361097e565b5b600182019050919050565b600073ffffffffffffffffffffffffffffffffffffffff82169050919050565b6000610a2a826109ff565b9050919050565b610a3a81610a1f565b82525050565b6000602082019050610a556000830184610a31565b92915050565b610a64816109ad565b82525050565b6000602082019050610a7f6000830184610a5b565b92915050565b6000610a90826109ff565b9050919050565b610aa081610a85565b82525050565b6000602082019050610abb6000830184610a97565b92915050565b600081519050919050565b600082825260208201905092915050565b6000819050602082019050919050565b610af6816109ad565b82525050565b610b0581610a85565b82525050565b604082016000820151610b216000850182610aed565b506020820151610b346020850182610afc565b50505050565b6000610b468383610b0b565b60408301905092915050565b6000602082019050919050565b6000610b6a82610ac1565b610b748185610acc565b9350610b7f83610add565b8060005b83811015610bb0578151610b978882610b3a565b9750610ba283610b52565b925050600181019050610b83565b5085935050505092915050565b60006020820190508181036000830152610bd78184610b5f565b905092915050565b600082825260208201905092915050565b7f596f7520617265206e6f7420616c6c6f77656420746f20646f2074686973206660008201527f756e6374696f6e616c6974792100000000000000000000000000000000000000602082015250565b6000610c4c602d83610bdf565b9150610c5782610bf0565b604082019050919050565b60006020820190508181036000830152610c7b81610c3f565b9050919050565b7f4e487b7100000000000000000000000000000000000000000000000000000000600052601260045260246000fd5b6000610cbc826109ad565b9150610cc7836109ad565b925082610cd757610cd6610c82565b5b828206905092915050565b7f596f7520617265206e6f74206d616e6167657200000000000000000000000000600082015250565b6000610d18601383610bdf565b9150610d2382610ce2565b602082019050919050565b60006020820190508181036000830152610d4781610d0b565b9050919050565b7f596f7520617265206d616e616765720000000000000000000000000000000000600082015250565b6000610d84600f83610bdf565b9150610d8f82610d4e565b602082019050919050565b60006020820190508181036000830152610db381610d77565b9050919050565b7f456e7465722076616c6964207469636b65742073697a65000000000000000000600082015250565b6000610df0601783610bdf565b9150610dfb82610dba565b602082019050919050565b60006020820190508181036000830152610e1f81610de3565b9050919050565b7f4e487b7100000000000000000000000000000000000000000000000000000000600052604160045260246000fd5b7f4e487b7100000000000000000000000000000000000000000000000000000000600052603260045260246000fd5b6000819050919050565b610e9f610e9a826109ad565b610e84565b82525050565b6000610eb18286610e8e565b602082019150610ec18285610e8e565b602082019150610ed18284610e8e565b60208201915081905094935050505056fea26469706673582212209a237d0b78ad32b1a1c1045e09afec68af83d6cc9d4bd1188001cbfdb9c7e9fa64736f6c63430008120033",
					"opcodes": "PUSH1 0x80 PUSH1 0x40 MSTORE CALLVALUE DUP1 ISZERO PUSH2 0x10 JUMPI PUSH1 0x0 DUP1 REVERT JUMPDEST POP CALLER PUSH1 0x2 PUSH1 0x0 PUSH2 0x100 EXP DUP2 SLOAD DUP2 PUSH20 0xFFFFFFFFFFFFFFFFFFFFFFFFFFFFFFFFFFFFFFFF MUL NOT AND SWAP1 DUP4 PUSH20 0xFFFFFFFFFFFFFFFFFFFFFFFFFFFFFFFFFFFFFFFF AND MUL OR SWAP1 SSTORE POP PUSH2 0xF18 DUP1 PUSH2 0x61 PUSH1 0x0 CODECOPY PUSH1 0x0 RETURN INVALID PUSH1 0x80 PUSH1 0x40 MSTORE PUSH1 0x4 CALLDATASIZE LT PUSH2 0x59 JUMPI PUSH1 0x0 CALLDATALOAD PUSH1 0xE0 SHR DUP1 PUSH4 0x33A99E04 EQ PUSH2 0x1CD JUMPI DUP1 PUSH4 0x481C6A75 EQ PUSH2 0x1E4 JUMPI DUP1 PUSH4 0xAF5BC7B5 EQ PUSH2 0x20F JUMPI DUP1 PUSH4 0xCCFC811B EQ PUSH2 0x23A JUMPI DUP1 PUSH4 0xDFBF53AE EQ PUSH2 0x244 JUMPI DUP1 PUSH4 0xE97C125F EQ PUSH2 0x26F JUMPI PUSH2 0x1BF JUMP JUMPDEST CALLDATASIZE PUSH2 0x1BF JUMPI PUSH8 0xDE0B6B3A7640000 CALLVALUE EQ ISZERO DUP1 PUSH2 0xC3 JUMPI POP PUSH1 0x2 PUSH1 0x0 SWAP1 SLOAD SWAP1 PUSH2 0x100 EXP SWAP1 DIV PUSH20 0xFFFFFFFFFFFFFFFFFFFFFFFFFFFFFFFFFFFFFFFF AND PUSH20 0xFFFFFFFFFFFFFFFFFFFFFFFFFFFFFFFFFFFFFFFF AND CALLER PUSH20 0xFFFFFFFFFFFFFFFFFFFFFFFFFFFFFFFFFFFFFFFF AND EQ ISZERO JUMPDEST ISZERO PUSH2 0x110 JUMPI CALLER PUSH20 0xFFFFFFFFFFFFFFFFFFFFFFFFFFFFFFFFFFFFFFFF AND PUSH2 0x8FC CALLVALUE SWAP1 DUP2 ISZERO MUL SWAP1 PUSH1 0x40 MLOAD PUSH1 0x0 PUSH1 0x40 MLOAD DUP1 DUP4 SUB DUP2 DUP6 DUP9 DUP9 CALL SWAP4 POP POP POP POP ISZERO DUP1 ISZERO PUSH2 0x10E JUMPI RETURNDATASIZE PUSH1 0x0 DUP1 RETURNDATACOPY RETURNDATASIZE PUSH1 0x0 REVERT JUMPDEST POP JUMPDEST PUSH1 0x40 MLOAD DUP1 PUSH1 0x40 ADD PUSH1 0x40 MSTORE DUP1 PUSH1 0x3 SLOAD DUP2 MSTORE PUSH1 0x20 ADD CALLER PUSH20 0xFFFFFFFFFFFFFFFFFFFFFFFFFFFFFFFFFFFFFFFF AND DUP2 MSTORE POP PUSH1 0x1 PUSH1 0x0 PUSH1 0x3 SLOAD DUP2 MSTORE PUSH1 0x20 ADD SWAP1 DUP2 MSTORE PUSH1 0x20 ADD PUSH1 0x0 KECCAK256 PUSH1 0x0 DUP3 ADD MLOAD DUP2 PUSH1 0x0 ADD SSTORE PUSH1 0x20 DUP3 ADD MLOAD DUP2 PUSH1 0x1 ADD PUSH1 0x0 PUSH2 0x100 EXP DUP2 SLOAD DUP2 PUSH20 0xFFFFFFFFFFFFFFFFFFFFFFFFFFFFFFFFFFFFFFFF MUL NOT AND SWAP1 DUP4 PUSH20 0xFFFFFFFFFFFFFFFFFFFFFFFFFFFFFFFFFFFFFFFF AND MUL OR SWAP1 SSTORE POP SWAP1 POP POP PUSH1 0x3 PUSH1 0x0 DUP2 SLOAD DUP1 SWAP3 SWAP2 SWAP1 PUSH2 0x1B9 SWAP1 PUSH2 0x9B7 JUMP JUMPDEST SWAP2 SWAP1 POP SSTORE STOP JUMPDEST CALLVALUE DUP1 ISZERO PUSH2 0x1CB JUMPI PUSH1 0x0 DUP1 REVERT JUMPDEST STOP JUMPDEST CALLVALUE DUP1 ISZERO PUSH2 0x1D9 JUMPI PUSH1 0x0 DUP1 REVERT JUMPDEST POP PUSH2 0x1E2 PUSH2 0x29A JUMP JUMPDEST STOP JUMPDEST CALLVALUE DUP1 ISZERO PUSH2 0x1F0 JUMPI PUSH1 0x0 DUP1 REVERT JUMPDEST POP PUSH2 0x1F9 PUSH2 0x4EF JUMP JUMPDEST PUSH1 0x40 MLOAD PUSH2 0x206 SWAP2 SWAP1 PUSH2 0xA40 JUMP JUMPDEST PUSH1 0x40 MLOAD DUP1 SWAP2 SUB SWAP1 RETURN JUMPDEST CALLVALUE DUP1 ISZERO PUSH2 0x21B JUMPI PUSH1 0x0 DUP1 REVERT JUMPDEST POP PUSH2 0x224 PUSH2 0x515 JUMP JUMPDEST PUSH1 0x40 MLOAD PUSH2 0x231 SWAP2 SWAP1 PUSH2 0xA6A JUMP JUMPDEST PUSH1 0x40 MLOAD DUP1 SWAP2 SUB SWAP1 RETURN JUMPDEST PUSH2 0x242 PUSH2 0x63D JUMP JUMPDEST STOP JUMPDEST CALLVALUE DUP1 ISZERO PUSH2 0x250 JUMPI PUSH1 0x0 DUP1 REVERT JUMPDEST POP PUSH2 0x259 PUSH2 0x7C7 JUMP JUMPDEST PUSH1 0x40 MLOAD PUSH2 0x266 SWAP2 SWAP1 PUSH2 0xAA6 JUMP JUMPDEST PUSH1 0x40 MLOAD DUP1 SWAP2 SUB SWAP1 RETURN JUMPDEST CALLVALUE DUP1 ISZERO PUSH2 0x27B JUMPI PUSH1 0x0 DUP1 REVERT JUMPDEST POP PUSH2 0x284 PUSH2 0x7EB JUMP JUMPDEST PUSH1 0x40 MLOAD PUSH2 0x291 SWAP2 SWAP1 PUSH2 0xBBD JUMP JUMPDEST PUSH1 0x40 MLOAD DUP1 SWAP2 SUB SWAP1 RETURN JUMPDEST PUSH1 0x2 PUSH1 0x0 SWAP1 SLOAD SWAP1 PUSH2 0x100 EXP SWAP1 DIV PUSH20 0xFFFFFFFFFFFFFFFFFFFFFFFFFFFFFFFFFFFFFFFF AND PUSH20 0xFFFFFFFFFFFFFFFFFFFFFFFFFFFFFFFFFFFFFFFF AND CALLER PUSH20 0xFFFFFFFFFFFFFFFFFFFFFFFFFFFFFFFFFFFFFFFF AND EQ PUSH2 0x32A JUMPI PUSH1 0x40 MLOAD PUSH32 0x8C379A000000000000000000000000000000000000000000000000000000000 DUP2 MSTORE PUSH1 0x4 ADD PUSH2 0x321 SWAP1 PUSH2 0xC62 JUMP JUMPDEST PUSH1 0x40 MLOAD DUP1 SWAP2 SUB SWAP1 REVERT JUMPDEST PUSH1 0x3 DUP1 SLOAD LT ISZERO PUSH2 0x339 JUMPI PUSH1 0x0 DUP1 REVERT JUMPDEST PUSH1 0x0 PUSH1 0x3 SLOAD PUSH2 0x346 PUSH2 0x917 JUMP JUMPDEST PUSH2 0x350 SWAP2 SWAP1 PUSH2 0xCB1 JUMP JUMPDEST SWAP1 POP PUSH1 0x1 PUSH1 0x0 DUP3 DUP2 MSTORE PUSH1 0x20 ADD SWAP1 DUP2 MSTORE PUSH1 0x20 ADD PUSH1 0x0 KECCAK256 PUSH1 0x1 ADD PUSH1 0x0 SWAP1 SLOAD SWAP1 PUSH2 0x100 EXP SWAP1 DIV PUSH20 0xFFFFFFFFFFFFFFFFFFFFFFFFFFFFFFFFFFFFFFFF AND PUSH1 0x0 DUP1 PUSH2 0x100 EXP DUP2 SLOAD DUP2 PUSH20 0xFFFFFFFFFFFFFFFFFFFFFFFFFFFFFFFFFFFFFFFF MUL NOT AND SWAP1 DUP4 PUSH20 0xFFFFFFFFFFFFFFFFFFFFFFFFFFFFFFFFFFFFFFFF AND MUL OR SWAP1 SSTORE POP PUSH1 0x0 DUP1 SLOAD SWAP1 PUSH2 0x100 EXP SWAP1 DIV PUSH20 0xFFFFFFFFFFFFFFFFFFFFFFFFFFFFFFFFFFFFFFFF AND PUSH20 0xFFFFFFFFFFFFFFFFFFFFFFFFFFFFFFFFFFFFFFFF AND PUSH2 0x8FC SELFBALANCE SWAP1 DUP2 ISZERO MUL SWAP1 PUSH1 0x40 MLOAD PUSH1 0x0 PUSH1 0x40 MLOAD DUP1 DUP4 SUB DUP2 DUP6 DUP9 DUP9 CALL SWAP4 POP POP POP POP ISZERO DUP1 ISZERO PUSH2 0x42E JUMPI RETURNDATASIZE PUSH1 0x0 DUP1 RETURNDATACOPY RETURNDATASIZE PUSH1 0x0 REVERT JUMPDEST POP PUSH1 0x0 JUMPDEST PUSH1 0x3 SLOAD DUP2 LT ISZERO PUSH2 0x4E3 JUMPI PUSH1 0x40 MLOAD DUP1 PUSH1 0x40 ADD PUSH1 0x40 MSTORE DUP1 PUSH1 0x0 DUP2 MSTORE PUSH1 0x20 ADD PUSH1 0x0 PUSH20 0xFFFFFFFFFFFFFFFFFFFFFFFFFFFFFFFFFFFFFFFF AND DUP2 MSTORE POP PUSH1 0x1 PUSH1 0x0 DUP4 DUP2 MSTORE PUSH1 0x20 ADD SWAP1 DUP2 MSTORE PUSH1 0x20 ADD PUSH1 0x0 KECCAK256 PUSH1 0x0 DUP3 ADD MLOAD DUP2 PUSH1 0x0 ADD SSTORE PUSH1 0x20 DUP3 ADD MLOAD DUP2 PUSH1 0x1 ADD PUSH1 0x0 PUSH2 0x100 EXP DUP2 SLOAD DUP2 PUSH20 0xFFFFFFFFFFFFFFFFFFFFFFFFFFFFFFFFFFFFFFFF MUL NOT AND SWAP1 DUP4 PUSH20 0xFFFFFFFFFFFFFFFFFFFFFFFFFFFFFFFFFFFFFFFF AND MUL OR SWAP1 SSTORE POP SWAP1 POP POP DUP1 DUP1 PUSH2 0x4DB SWAP1 PUSH2 0x9B7 JUMP JUMPDEST SWAP2 POP POP PUSH2 0x432 JUMP JUMPDEST POP PUSH1 0x0 PUSH1 0x3 DUP2 SWAP1 SSTORE POP POP JUMP JUMPDEST PUSH1 0x2 PUSH1 0x0 SWAP1 SLOAD SWAP1 PUSH2 0x100 EXP SWAP1 DIV PUSH20 0xFFFFFFFFFFFFFFFFFFFFFFFFFFFFFFFFFFFFFFFF AND DUP2 JUMP JUMPDEST PUSH1 0x0 PUSH1 0x2 PUSH1 0x0 SWAP1 SLOAD SWAP1 PUSH2 0x100 EXP SWAP1 DIV PUSH20 0xFFFFFFFFFFFFFFFFFFFFFFFFFFFFFFFFFFFFFFFF AND PUSH20 0xFFFFFFFFFFFFFFFFFFFFFFFFFFFFFFFFFFFFFFFF AND CALLER PUSH20 0xFFFFFFFFFFFFFFFFFFFFFFFFFFFFFFFFFFFFFFFF AND EQ PUSH2 0x5A7 JUMPI PUSH1 0x40 MLOAD PUSH32 0x8C379A000000000000000000000000000000000000000000000000000000000 DUP2 MSTORE PUSH1 0x4 ADD PUSH2 0x59E SWAP1 PUSH2 0xC62 JUMP JUMPDEST PUSH1 0x40 MLOAD DUP1 SWAP2 SUB SWAP1 REVERT JUMPDEST PUSH1 0x2 PUSH1 0x0 SWAP1 SLOAD SWAP1 PUSH2 0x100 EXP SWAP1 DIV PUSH20 0xFFFFFFFFFFFFFFFFFFFFFFFFFFFFFFFFFFFFFFFF AND PUSH20 0xFFFFFFFFFFFFFFFFFFFFFFFFFFFFFFFFFFFFFFFF AND CALLER PUSH20 0xFFFFFFFFFFFFFFFFFFFFFFFFFFFFFFFFFFFFFFFF AND EQ PUSH2 0x637 JUMPI PUSH1 0x40 MLOAD PUSH32 0x8C379A000000000000000000000000000000000000000000000000000000000 DUP2 MSTORE PUSH1 0x4 ADD PUSH2 0x62E SWAP1 PUSH2 0xD2E JUMP JUMPDEST PUSH1 0x40 MLOAD DUP1 SWAP2 SUB SWAP1 REVERT JUMPDEST SELFBALANCE SWAP1 POP SWAP1 JUMP JUMPDEST PUSH1 0x2 PUSH1 0x0 SWAP1 SLOAD SWAP1 PUSH2 0x100 EXP SWAP1 DIV PUSH20 0xFFFFFFFFFFFFFFFFFFFFFFFFFFFFFFFFFFFFFFFF AND PUSH20 0xFFFFFFFFFFFFFFFFFFFFFFFFFFFFFFFFFFFFFFFF AND CALLER PUSH20 0xFFFFFFFFFFFFFFFFFFFFFFFFFFFFFFFFFFFFFFFF AND SUB PUSH2 0x6CD JUMPI PUSH1 0x40 MLOAD PUSH32 0x8C379A000000000000000000000000000000000000000000000000000000000 DUP2 MSTORE PUSH1 0x4 ADD PUSH2 0x6C4 SWAP1 PUSH2 0xD9A JUMP JUMPDEST PUSH1 0x40 MLOAD DUP1 SWAP2 SUB SWAP1 REVERT JUMPDEST PUSH8 0xDE0B6B3A7640000 CALLVALUE EQ PUSH2 0x717 JUMPI PUSH1 0x40 MLOAD PUSH32 0x8C379A000000000000000000000000000000000000000000000000000000000 DUP2 MSTORE PUSH1 0x4 ADD PUSH2 0x70E SWAP1 PUSH2 0xE06 JUMP JUMPDEST PUSH1 0x40 MLOAD DUP1 SWAP2 SUB SWAP1 REVERT JUMPDEST PUSH1 0x40 MLOAD DUP1 PUSH1 0x40 ADD PUSH1 0x40 MSTORE DUP1 PUSH1 0x3 SLOAD DUP2 MSTORE PUSH1 0x20 ADD CALLER PUSH20 0xFFFFFFFFFFFFFFFFFFFFFFFFFFFFFFFFFFFFFFFF AND DUP2 MSTORE POP PUSH1 0x1 PUSH1 0x0 PUSH1 0x3 SLOAD DUP2 MSTORE PUSH1 0x20 ADD SWAP1 DUP2 MSTORE PUSH1 0x20 ADD PUSH1 0x0 KECCAK256 PUSH1 0x0 DUP3 ADD MLOAD DUP2 PUSH1 0x0 ADD SSTORE PUSH1 0x20 DUP3 ADD MLOAD DUP2 PUSH1 0x1 ADD PUSH1 0x0 PUSH2 0x100 EXP DUP2 SLOAD DUP2 PUSH20 0xFFFFFFFFFFFFFFFFFFFFFFFFFFFFFFFFFFFFFFFF MUL NOT AND SWAP1 DUP4 PUSH20 0xFFFFFFFFFFFFFFFFFFFFFFFFFFFFFFFFFFFFFFFF AND MUL OR SWAP1 SSTORE POP SWAP1 POP POP PUSH1 0x3 PUSH1 0x0 DUP2 SLOAD DUP1 SWAP3 SWAP2 SWAP1 PUSH2 0x7C0 SWAP1 PUSH2 0x9B7 JUMP JUMPDEST SWAP2 SWAP1 POP SSTORE POP JUMP JUMPDEST PUSH1 0x0 DUP1 SLOAD SWAP1 PUSH2 0x100 EXP SWAP1 DIV PUSH20 0xFFFFFFFFFFFFFFFFFFFFFFFFFFFFFFFFFFFFFFFF AND DUP2 JUMP JUMPDEST PUSH1 0x60 PUSH1 0x0 PUSH1 0x3 SLOAD PUSH8 0xFFFFFFFFFFFFFFFF DUP2 GT ISZERO PUSH2 0x80B JUMPI PUSH2 0x80A PUSH2 0xE26 JUMP JUMPDEST JUMPDEST PUSH1 0x40 MLOAD SWAP1 DUP1 DUP3 MSTORE DUP1 PUSH1 0x20 MUL PUSH1 0x20 ADD DUP3 ADD PUSH1 0x40 MSTORE DUP1 ISZERO PUSH2 0x844 JUMPI DUP2 PUSH1 0x20 ADD JUMPDEST PUSH2 0x831 PUSH2 0x94E JUMP JUMPDEST DUP2 MSTORE PUSH1 0x20 ADD SWAP1 PUSH1 0x1 SWAP1 SUB SWAP1 DUP2 PUSH2 0x829 JUMPI SWAP1 POP JUMPDEST POP SWAP1 POP PUSH2 0x84F PUSH2 0x94E JUMP JUMPDEST PUSH1 0x0 JUMPDEST PUSH1 0x3 SLOAD DUP2 LT ISZERO PUSH2 0x90E JUMPI PUSH1 0x1 PUSH1 0x0 DUP3 DUP2 MSTORE PUSH1 0x20 ADD SWAP1 DUP2 MSTORE PUSH1 0x20 ADD PUSH1 0x0 KECCAK256 PUSH1 0x40 MLOAD DUP1 PUSH1 0x40 ADD PUSH1 0x40 MSTORE SWAP1 DUP2 PUSH1 0x0 DUP3 ADD SLOAD DUP2 MSTORE PUSH1 0x20 ADD PUSH1 0x1 DUP3 ADD PUSH1 0x0 SWAP1 SLOAD SWAP1 PUSH2 0x100 EXP SWAP1 DIV PUSH20 0xFFFFFFFFFFFFFFFFFFFFFFFFFFFFFFFFFFFFFFFF AND PUSH20 0xFFFFFFFFFFFFFFFFFFFFFFFFFFFFFFFFFFFFFFFF AND PUSH20 0xFFFFFFFFFFFFFFFFFFFFFFFFFFFFFFFFFFFFFFFF AND DUP2 MSTORE POP POP SWAP2 POP DUP2 DUP4 DUP3 DUP2 MLOAD DUP2 LT PUSH2 0x8F0 JUMPI PUSH2 0x8EF PUSH2 0xE55 JUMP JUMPDEST JUMPDEST PUSH1 0x20 MUL PUSH1 0x20 ADD ADD DUP2 SWAP1 MSTORE POP DUP1 DUP1 PUSH2 0x906 SWAP1 PUSH2 0x9B7 JUMP JUMPDEST SWAP2 POP POP PUSH2 0x852 JUMP JUMPDEST POP DUP2 SWAP3 POP POP POP SWAP1 JUMP JUMPDEST PUSH1 0x0 PREVRANDAO TIMESTAMP PUSH1 0x3 SLOAD PUSH1 0x40 MLOAD PUSH1 0x20 ADD PUSH2 0x930 SWAP4 SWAP3 SWAP2 SWAP1 PUSH2 0xEA5 JUMP JUMPDEST PUSH1 0x40 MLOAD PUSH1 0x20 DUP2 DUP4 SUB SUB DUP2 MSTORE SWAP1 PUSH1 0x40 MSTORE DUP1 MLOAD SWAP1 PUSH1 0x20 ADD KECCAK256 PUSH1 0x0 SHR SWAP1 POP SWAP1 JUMP JUMPDEST PUSH1 0x40 MLOAD DUP1 PUSH1 0x40 ADD PUSH1 0x40 MSTORE DUP1 PUSH1 0x0 DUP2 MSTORE PUSH1 0x20 ADD PUSH1 0x0 PUSH20 0xFFFFFFFFFFFFFFFFFFFFFFFFFFFFFFFFFFFFFFFF AND DUP2 MSTORE POP SWAP1 JUMP JUMPDEST PUSH32 0x4E487B7100000000000000000000000000000000000000000000000000000000 PUSH1 0x0 MSTORE PUSH1 0x11 PUSH1 0x4 MSTORE PUSH1 0x24 PUSH1 0x0 REVERT JUMPDEST PUSH1 0x0 DUP2 SWAP1 POP SWAP2 SWAP1 POP JUMP JUMPDEST PUSH1 0x0 PUSH2 0x9C2 DUP3 PUSH2 0x9AD JUMP JUMPDEST SWAP2 POP PUSH32 0xFFFFFFFFFFFFFFFFFFFFFFFFFFFFFFFFFFFFFFFFFFFFFFFFFFFFFFFFFFFFFFFF DUP3 SUB PUSH2 0x9F4 JUMPI PUSH2 0x9F3 PUSH2 0x97E JUMP JUMPDEST JUMPDEST PUSH1 0x1 DUP3 ADD SWAP1 POP SWAP2 SWAP1 POP JUMP JUMPDEST PUSH1 0x0 PUSH20 0xFFFFFFFFFFFFFFFFFFFFFFFFFFFFFFFFFFFFFFFF DUP3 AND SWAP1 POP SWAP2 SWAP1 POP JUMP JUMPDEST PUSH1 0x0 PUSH2 0xA2A DUP3 PUSH2 0x9FF JUMP JUMPDEST SWAP1 POP SWAP2 SWAP1 POP JUMP JUMPDEST PUSH2 0xA3A DUP2 PUSH2 0xA1F JUMP JUMPDEST DUP3 MSTORE POP POP JUMP JUMPDEST PUSH1 0x0 PUSH1 0x20 DUP3 ADD SWAP1 POP PUSH2 0xA55 PUSH1 0x0 DUP4 ADD DUP5 PUSH2 0xA31 JUMP JUMPDEST SWAP3 SWAP2 POP POP JUMP JUMPDEST PUSH2 0xA64 DUP2 PUSH2 0x9AD JUMP JUMPDEST DUP3 MSTORE POP POP JUMP JUMPDEST PUSH1 0x0 PUSH1 0x20 DUP3 ADD SWAP1 POP PUSH2 0xA7F PUSH1 0x0 DUP4 ADD DUP5 PUSH2 0xA5B JUMP JUMPDEST SWAP3 SWAP2 POP POP JUMP JUMPDEST PUSH1 0x0 PUSH2 0xA90 DUP3 PUSH2 0x9FF JUMP JUMPDEST SWAP1 POP SWAP2 SWAP1 POP JUMP JUMPDEST PUSH2 0xAA0 DUP2 PUSH2 0xA85 JUMP JUMPDEST DUP3 MSTORE POP POP JUMP JUMPDEST PUSH1 0x0 PUSH1 0x20 DUP3 ADD SWAP1 POP PUSH2 0xABB PUSH1 0x0 DUP4 ADD DUP5 PUSH2 0xA97 JUMP JUMPDEST SWAP3 SWAP2 POP POP JUMP JUMPDEST PUSH1 0x0 DUP2 MLOAD SWAP1 POP SWAP2 SWAP1 POP JUMP JUMPDEST PUSH1 0x0 DUP3 DUP3 MSTORE PUSH1 0x20 DUP3 ADD SWAP1 POP SWAP3 SWAP2 POP POP JUMP JUMPDEST PUSH1 0x0 DUP2 SWAP1 POP PUSH1 0x20 DUP3 ADD SWAP1 POP SWAP2 SWAP1 POP JUMP JUMPDEST PUSH2 0xAF6 DUP2 PUSH2 0x9AD JUMP JUMPDEST DUP3 MSTORE POP POP JUMP JUMPDEST PUSH2 0xB05 DUP2 PUSH2 0xA85 JUMP JUMPDEST DUP3 MSTORE POP POP JUMP JUMPDEST PUSH1 0x40 DUP3 ADD PUSH1 0x0 DUP3 ADD MLOAD PUSH2 0xB21 PUSH1 0x0 DUP6 ADD DUP3 PUSH2 0xAED JUMP JUMPDEST POP PUSH1 0x20 DUP3 ADD MLOAD PUSH2 0xB34 PUSH1 0x20 DUP6 ADD DUP3 PUSH2 0xAFC JUMP JUMPDEST POP POP POP POP JUMP JUMPDEST PUSH1 0x0 PUSH2 0xB46 DUP4 DUP4 PUSH2 0xB0B JUMP JUMPDEST PUSH1 0x40 DUP4 ADD SWAP1 POP SWAP3 SWAP2 POP POP JUMP JUMPDEST PUSH1 0x0 PUSH1 0x20 DUP3 ADD SWAP1 POP SWAP2 SWAP1 POP JUMP JUMPDEST PUSH1 0x0 PUSH2 0xB6A DUP3 PUSH2 0xAC1 JUMP JUMPDEST PUSH2 0xB74 DUP2 DUP6 PUSH2 0xACC JUMP JUMPDEST SWAP4 POP PUSH2 0xB7F DUP4 PUSH2 0xADD JUMP JUMPDEST DUP1 PUSH1 0x0 JUMPDEST DUP4 DUP2 LT ISZERO PUSH2 0xBB0 JUMPI DUP2 MLOAD PUSH2 0xB97 DUP9 DUP3 PUSH2 0xB3A JUMP JUMPDEST SWAP8 POP PUSH2 0xBA2 DUP4 PUSH2 0xB52 JUMP JUMPDEST SWAP3 POP POP PUSH1 0x1 DUP2 ADD SWAP1 POP PUSH2 0xB83 JUMP JUMPDEST POP DUP6 SWAP4 POP POP POP POP SWAP3 SWAP2 POP POP JUMP JUMPDEST PUSH1 0x0 PUSH1 0x20 DUP3 ADD SWAP1 POP DUP2 DUP2 SUB PUSH1 0x0 DUP4 ADD MSTORE PUSH2 0xBD7 DUP2 DUP5 PUSH2 0xB5F JUMP JUMPDEST SWAP1 POP SWAP3 SWAP2 POP POP JUMP JUMPDEST PUSH1 0x0 DUP3 DUP3 MSTORE PUSH1 0x20 DUP3 ADD SWAP1 POP SWAP3 SWAP2 POP POP JUMP JUMPDEST PUSH32 0x596F7520617265206E6F7420616C6C6F77656420746F20646F20746869732066 PUSH1 0x0 DUP3 ADD MSTORE PUSH32 0x756E6374696F6E616C6974792100000000000000000000000000000000000000 PUSH1 0x20 DUP3 ADD MSTORE POP JUMP JUMPDEST PUSH1 0x0 PUSH2 0xC4C PUSH1 0x2D DUP4 PUSH2 0xBDF JUMP JUMPDEST SWAP2 POP PUSH2 0xC57 DUP3 PUSH2 0xBF0 JUMP JUMPDEST PUSH1 0x40 DUP3 ADD SWAP1 POP SWAP2 SWAP1 POP JUMP JUMPDEST PUSH1 0x0 PUSH1 0x20 DUP3 ADD SWAP1 POP DUP2 DUP2 SUB PUSH1 0x0 DUP4 ADD MSTORE PUSH2 0xC7B DUP2 PUSH2 0xC3F JUMP JUMPDEST SWAP1 POP SWAP2 SWAP1 POP JUMP JUMPDEST PUSH32 0x4E487B7100000000000000000000000000000000000000000000000000000000 PUSH1 0x0 MSTORE PUSH1 0x12 PUSH1 0x4 MSTORE PUSH1 0x24 PUSH1 0x0 REVERT JUMPDEST PUSH1 0x0 PUSH2 0xCBC DUP3 PUSH2 0x9AD JUMP JUMPDEST SWAP2 POP PUSH2 0xCC7 DUP4 PUSH2 0x9AD JUMP JUMPDEST SWAP3 POP DUP3 PUSH2 0xCD7 JUMPI PUSH2 0xCD6 PUSH2 0xC82 JUMP JUMPDEST JUMPDEST DUP3 DUP3 MOD SWAP1 POP SWAP3 SWAP2 POP POP JUMP JUMPDEST PUSH32 0x596F7520617265206E6F74206D616E6167657200000000000000000000000000 PUSH1 0x0 DUP3 ADD MSTORE POP JUMP JUMPDEST PUSH1 0x0 PUSH2 0xD18 PUSH1 0x13 DUP4 PUSH2 0xBDF JUMP JUMPDEST SWAP2 POP PUSH2 0xD23 DUP3 PUSH2 0xCE2 JUMP JUMPDEST PUSH1 0x20 DUP3 ADD SWAP1 POP SWAP2 SWAP1 POP JUMP JUMPDEST PUSH1 0x0 PUSH1 0x20 DUP3 ADD SWAP1 POP DUP2 DUP2 SUB PUSH1 0x0 DUP4 ADD MSTORE PUSH2 0xD47 DUP2 PUSH2 0xD0B JUMP JUMPDEST SWAP1 POP SWAP2 SWAP1 POP JUMP JUMPDEST PUSH32 0x596F7520617265206D616E616765720000000000000000000000000000000000 PUSH1 0x0 DUP3 ADD MSTORE POP JUMP JUMPDEST PUSH1 0x0 PUSH2 0xD84 PUSH1 0xF DUP4 PUSH2 0xBDF JUMP JUMPDEST SWAP2 POP PUSH2 0xD8F DUP3 PUSH2 0xD4E JUMP JUMPDEST PUSH1 0x20 DUP3 ADD SWAP1 POP SWAP2 SWAP1 POP JUMP JUMPDEST PUSH1 0x0 PUSH1 0x20 DUP3 ADD SWAP1 POP DUP2 DUP2 SUB PUSH1 0x0 DUP4 ADD MSTORE PUSH2 0xDB3 DUP2 PUSH2 0xD77 JUMP JUMPDEST SWAP1 POP SWAP2 SWAP1 POP JUMP JUMPDEST PUSH32 0x456E7465722076616C6964207469636B65742073697A65000000000000000000 PUSH1 0x0 DUP3 ADD MSTORE POP JUMP JUMPDEST PUSH1 0x0 PUSH2 0xDF0 PUSH1 0x17 DUP4 PUSH2 0xBDF JUMP JUMPDEST SWAP2 POP PUSH2 0xDFB DUP3 PUSH2 0xDBA JUMP JUMPDEST PUSH1 0x20 DUP3 ADD SWAP1 POP SWAP2 SWAP1 POP JUMP JUMPDEST PUSH1 0x0 PUSH1 0x20 DUP3 ADD SWAP1 POP DUP2 DUP2 SUB PUSH1 0x0 DUP4 ADD MSTORE PUSH2 0xE1F DUP2 PUSH2 0xDE3 JUMP JUMPDEST SWAP1 POP SWAP2 SWAP1 POP JUMP JUMPDEST PUSH32 0x4E487B7100000000000000000000000000000000000000000000000000000000 PUSH1 0x0 MSTORE PUSH1 0x41 PUSH1 0x4 MSTORE PUSH1 0x24 PUSH1 0x0 REVERT JUMPDEST PUSH32 0x4E487B7100000000000000000000000000000000000000000000000000000000 PUSH1 0x0 MSTORE PUSH1 0x32 PUSH1 0x4 MSTORE PUSH1 0x24 PUSH1 0x0 REVERT JUMPDEST PUSH1 0x0 DUP2 SWAP1 POP SWAP2 SWAP1 POP JUMP JUMPDEST PUSH2 0xE9F PUSH2 0xE9A DUP3 PUSH2 0x9AD JUMP JUMPDEST PUSH2 0xE84 JUMP JUMPDEST DUP3 MSTORE POP POP JUMP JUMPDEST PUSH1 0x0 PUSH2 0xEB1 DUP3 DUP7 PUSH2 0xE8E JUMP JUMPDEST PUSH1 0x20 DUP3 ADD SWAP2 POP PUSH2 0xEC1 DUP3 DUP6 PUSH2 0xE8E JUMP JUMPDEST PUSH1 0x20 DUP3 ADD SWAP2 POP PUSH2 0xED1 DUP3 DUP5 PUSH2 0xE8E JUMP JUMPDEST PUSH1 0x20 DUP3 ADD SWAP2 POP DUP2 SWAP1 POP SWAP5 SWAP4 POP POP POP POP JUMP INVALID LOG2 PUSH5 0x6970667358 0x22 SLT KECCAK256 SWAP11 0x23 PUSH30 0xB78AD32B1A1C1045E09AFEC68AF83D6CC9D4BD1188001CBFDB9C7E9FA64 PUSH20 0x6F6C634300081200330000000000000000000000 "
				},
				"gasEstimates": {
					"creation": {
						"codeDepositCost": "772800",
						"executionCost": "25071",
						"totalCost": "797871"
					},
					"external": {
						"": "222",
						"getBalanceOfBallot()": "4798",
						"manager()": "2514",
						"registerParticipant()": "77468",
						"returnParticipantsList()": "infinite",
						"selectWinner()": "infinite",
						"winner()": "2577"
					},
					"internal": {
						"random()": "infinite"
					}
				},
				"methodIdentifiers": {
					"getBalanceOfBallot()": "af5bc7b5",
					"manager()": "481c6a75",
					"registerParticipant()": "ccfc811b",
					"returnParticipantsList()": "e97c125f",
					"selectWinner()": "33a99e04",
					"winner()": "dfbf53ae"
				}
			},
			"storageLayout": {
				"storage": [
					{
						"astId": 3,
						"contract": "contracts/Lottery.sol:Lottery",
						"label": "winner",
						"offset": 0,
						"slot": "0",
						"type": "t_address_payable"
					},
					{
						"astId": 13,
						"contract": "contracts/Lottery.sol:Lottery",
						"label": "ParticipantsList",
						"offset": 0,
						"slot": "1",
						"type": "t_mapping(t_uint256,t_struct(particiapnt)8_storage)"
					},
					{
						"astId": 15,
						"contract": "contracts/Lottery.sol:Lottery",
						"label": "manager",
						"offset": 0,
						"slot": "2",
						"type": "t_address"
					},
					{
						"astId": 17,
						"contract": "contracts/Lottery.sol:Lottery",
						"label": "nextID",
						"offset": 0,
						"slot": "3",
						"type": "t_uint256"
					}
				],
				"types": {
					"t_address": {
						"encoding": "inplace",
						"label": "address",
						"numberOfBytes": "20"
					},
					"t_address_payable": {
						"encoding": "inplace",
						"label": "address payable",
						"numberOfBytes": "20"
					},
					"t_mapping(t_uint256,t_struct(particiapnt)8_storage)": {
						"encoding": "mapping",
						"key": "t_uint256",
						"label": "mapping(uint256 => struct Lottery.particiapnt)",
						"numberOfBytes": "32",
						"value": "t_struct(particiapnt)8_storage"
					},
					"t_struct(particiapnt)8_storage": {
						"encoding": "inplace",
						"label": "struct Lottery.particiapnt",
						"members": [
							{
								"astId": 5,
								"contract": "contracts/Lottery.sol:Lottery",
								"label": "id",
								"offset": 0,
								"slot": "0",
								"type": "t_uint256"
							},
							{
								"astId": 7,
								"contract": "contracts/Lottery.sol:Lottery",
								"label": "accountAddress",
								"offset": 0,
								"slot": "1",
								"type": "t_address_payable"
							}
						],
						"numberOfBytes": "64"
					},
					"t_uint256": {
						"encoding": "inplace",
						"label": "uint256",
						"numberOfBytes": "32"
					}
				}
			},
			"userdoc": {
				"kind": "user",
				"methods": {},
				"version": 1
			}
		}
	}
}