{
  "contractName": "Lottery",
  "abi": [
    {
      "inputs": [],
      "stateMutability": "nonpayable",
      "type": "constructor"
    },
    {
      "stateMutability": "nonpayable",
      "type": "fallback"
    },
    {
      "inputs": [],
      "name": "manager",
      "outputs": [
        {
          "internalType": "address",
          "name": "",
          "type": "address"
        }
      ],
      "stateMutability": "view",
      "type": "function",
      "constant": true
    },
    {
      "inputs": [],
      "name": "winner",
      "outputs": [
        {
          "internalType": "address payable",
          "name": "",
          "type": "address"
        }
      ],
      "stateMutability": "view",
      "type": "function",
      "constant": true
    },
    {
      "stateMutability": "payable",
      "type": "receive",
      "payable": true
    },
    {
      "inputs": [],
      "name": "registerParticipant",
      "outputs": [],
      "stateMutability": "payable",
      "type": "function",
      "payable": true
    },
    {
      "inputs": [],
      "name": "getBalanceOfBallot",
      "outputs": [
        {
          "internalType": "uint256",
          "name": "",
          "type": "uint256"
        }
      ],
      "stateMutability": "view",
      "type": "function",
      "constant": true
    },
    {
      "inputs": [],
      "name": "selectWinner",
      "outputs": [],
      "stateMutability": "nonpayable",
      "type": "function"
    },
    {
      "inputs": [],
      "name": "returnParticipantsList",
      "outputs": [
        {
          "components": [
            {
              "internalType": "uint256",
              "name": "id",
              "type": "uint256"
            },
            {
              "internalType": "address payable",
              "name": "accountAddress",
              "type": "address"
            }
          ],
          "internalType": "struct Lottery.particiapnt[]",
          "name": "",
          "type": "tuple[]"
        }
      ],
      "stateMutability": "view",
      "type": "function",
      "constant": true
    }
  ],
  "bytecode": "0x608060405234801561001057600080fd5b5033600260006101000a81548173ffffffffffffffffffffffffffffffffffffffff021916908373ffffffffffffffffffffffffffffffffffffffff160217905550610f18806100616000396000f3fe6080604052600436106100595760003560e01c806333a99e04146101cd578063481c6a75146101e4578063af5bc7b51461020f578063ccfc811b1461023a578063dfbf53ae14610244578063e97c125f1461026f576101bf565b366101bf57670de0b6b3a7640000341415806100c35750600260009054906101000a900473ffffffffffffffffffffffffffffffffffffffff1673ffffffffffffffffffffffffffffffffffffffff163373ffffffffffffffffffffffffffffffffffffffff1614155b15610110573373ffffffffffffffffffffffffffffffffffffffff166108fc349081150290604051600060405180830381858888f1935050505015801561010e573d6000803e3d6000fd5b505b604051806040016040528060035481526020013373ffffffffffffffffffffffffffffffffffffffff168152506001600060035481526020019081526020016000206000820151816000015560208201518160010160006101000a81548173ffffffffffffffffffffffffffffffffffffffff021916908373ffffffffffffffffffffffffffffffffffffffff160217905550905050600360008154809291906101b9906109b7565b91905055005b3480156101cb57600080fd5b005b3480156101d957600080fd5b506101e261029a565b005b3480156101f057600080fd5b506101f96104ef565b6040516102069190610a40565b60405180910390f35b34801561021b57600080fd5b50610224610515565b6040516102319190610a6a565b60405180910390f35b61024261063d565b005b34801561025057600080fd5b506102596107c7565b6040516102669190610aa6565b60405180910390f35b34801561027b57600080fd5b506102846107eb565b6040516102919190610bbd565b60405180910390f35b600260009054906101000a900473ffffffffffffffffffffffffffffffffffffffff1673ffffffffffffffffffffffffffffffffffffffff163373ffffffffffffffffffffffffffffffffffffffff161461032a576040517f08c379a000000000000000000000000000000000000000000000000000000000815260040161032190610c62565b60405180910390fd5b60038054101561033957600080fd5b6000600354610346610917565b6103509190610cb1565b90506001600082815260200190815260200160002060010160009054906101000a900473ffffffffffffffffffffffffffffffffffffffff166000806101000a81548173ffffffffffffffffffffffffffffffffffffffff021916908373ffffffffffffffffffffffffffffffffffffffff16021790555060008054906101000a900473ffffffffffffffffffffffffffffffffffffffff1673ffffffffffffffffffffffffffffffffffffffff166108fc479081150290604051600060405180830381858888f1935050505015801561042e573d6000803e3d6000fd5b5060005b6003548110156104e357604051806040016040528060008152602001600073ffffffffffffffffffffffffffffffffffffffff16815250600160008381526020019081526020016000206000820151816000015560208201518160010160006101000a81548173ffffffffffffffffffffffffffffffffffffffff021916908373ffffffffffffffffffffffffffffffffffffffff16021790555090505080806104db906109b7565b915050610432565b50600060038190555050565b600260009054906101000a900473ffffffffffffffffffffffffffffffffffffffff1681565b6000600260009054906101000a900473ffffffffffffffffffffffffffffffffffffffff1673ffffffffffffffffffffffffffffffffffffffff163373ffffffffffffffffffffffffffffffffffffffff16146105a7576040517f08c379a000000000000000000000000000000000000000000000000000000000815260040161059e90610c62565b60405180910390fd5b600260009054906101000a900473ffffffffffffffffffffffffffffffffffffffff1673ffffffffffffffffffffffffffffffffffffffff163373ffffffffffffffffffffffffffffffffffffffff1614610637576040517f08c379a000000000000000000000000000000000000000000000000000000000815260040161062e90610d2e565b60405180910390fd5b47905090565b600260009054906101000a900473ffffffffffffffffffffffffffffffffffffffff1673ffffffffffffffffffffffffffffffffffffffff163373ffffffffffffffffffffffffffffffffffffffff16036106cd576040517f08c379a00000000000000000000000000000000000000000000000000000000081526004016106c490610d9a565b60405180910390fd5b670de0b6b3a76400003414610717576040517f08c379a000000000000000000000000000000000000000000000000000000000815260040161070e90610e06565b60405180910390fd5b604051806040016040528060035481526020013373ffffffffffffffffffffffffffffffffffffffff168152506001600060035481526020019081526020016000206000820151816000015560208201518160010160006101000a81548173ffffffffffffffffffffffffffffffffffffffff021916908373ffffffffffffffffffffffffffffffffffffffff160217905550905050600360008154809291906107c0906109b7565b9190505550565b60008054906101000a900473ffffffffffffffffffffffffffffffffffffffff1681565b6060600060035467ffffffffffffffff81111561080b5761080a610e26565b5b60405190808252806020026020018201604052801561084457816020015b61083161094e565b8152602001906001900390816108295790505b50905061084f61094e565b60005b60035481101561090e5760016000828152602001908152602001600020604051806040016040529081600082015481526020016001820160009054906101000a900473ffffffffffffffffffffffffffffffffffffffff1673ffffffffffffffffffffffffffffffffffffffff1673ffffffffffffffffffffffffffffffffffffffff16815250509150818382815181106108f0576108ef610e55565b5b60200260200101819052508080610906906109b7565b915050610852565b50819250505090565b6000444260035460405160200161093093929190610ea5565b6040516020818303038152906040528051906020012060001c905090565b604051806040016040528060008152602001600073ffffffffffffffffffffffffffffffffffffffff1681525090565b7f4e487b7100000000000000000000000000000000000000000000000000000000600052601160045260246000fd5b6000819050919050565b60006109c2826109ad565b91507fffffffffffffffffffffffffffffffffffffffffffffffffffffffffffffffff82036109f4576109f361097e565b5b600182019050919050565b600073ffffffffffffffffffffffffffffffffffffffff82169050919050565b6000610a2a826109ff565b9050919050565b610a3a81610a1f565b82525050565b6000602082019050610a556000830184610a31565b92915050565b610a64816109ad565b82525050565b6000602082019050610a7f6000830184610a5b565b92915050565b6000610a90826109ff565b9050919050565b610aa081610a85565b82525050565b6000602082019050610abb6000830184610a97565b92915050565b600081519050919050565b600082825260208201905092915050565b6000819050602082019050919050565b610af6816109ad565b82525050565b610b0581610a85565b82525050565b604082016000820151610b216000850182610aed565b506020820151610b346020850182610afc565b50505050565b6000610b468383610b0b565b60408301905092915050565b6000602082019050919050565b6000610b6a82610ac1565b610b748185610acc565b9350610b7f83610add565b8060005b83811015610bb0578151610b978882610b3a565b9750610ba283610b52565b925050600181019050610b83565b5085935050505092915050565b60006020820190508181036000830152610bd78184610b5f565b905092915050565b600082825260208201905092915050565b7f596f7520617265206e6f7420616c6c6f77656420746f20646f2074686973206660008201527f756e6374696f6e616c6974792100000000000000000000000000000000000000602082015250565b6000610c4c602d83610bdf565b9150610c5782610bf0565b604082019050919050565b60006020820190508181036000830152610c7b81610c3f565b9050919050565b7f4e487b7100000000000000000000000000000000000000000000000000000000600052601260045260246000fd5b6000610cbc826109ad565b9150610cc7836109ad565b925082610cd757610cd6610c82565b5b828206905092915050565b7f596f7520617265206e6f74206d616e6167657200000000000000000000000000600082015250565b6000610d18601383610bdf565b9150610d2382610ce2565b602082019050919050565b60006020820190508181036000830152610d4781610d0b565b9050919050565b7f596f7520617265206d616e616765720000000000000000000000000000000000600082015250565b6000610d84600f83610bdf565b9150610d8f82610d4e565b602082019050919050565b60006020820190508181036000830152610db381610d77565b9050919050565b7f456e7465722076616c6964207469636b65742073697a65000000000000000000600082015250565b6000610df0601783610bdf565b9150610dfb82610dba565b602082019050919050565b60006020820190508181036000830152610e1f81610de3565b9050919050565b7f4e487b7100000000000000000000000000000000000000000000000000000000600052604160045260246000fd5b7f4e487b7100000000000000000000000000000000000000000000000000000000600052603260045260246000fd5b6000819050919050565b610e9f610e9a826109ad565b610e84565b82525050565b6000610eb18286610e8e565b602082019150610ec18285610e8e565b602082019150610ed18284610e8e565b60208201915081905094935050505056fea26469706673582212205b4847f7cd0a7e9f4ded9e350335302a9bcb2dd783b57c49791de895f0df710364736f6c634300080d0033",
  "immutableReferences": {},
  "source": "//SPDX-License-Identifier: UNLICENSED\r\npragma solidity >0.8.0 <=0.9.0;\r\n\r\ncontract Lottery{\r\n    address payable public winner;\r\n    struct particiapnt{\r\n         uint id;\r\n         address payable accountAddress;\r\n    }\r\n\r\n    mapping(uint=>particiapnt) ParticipantsList;\r\n\r\n    address public manager;\r\n\r\n    uint private nextID;\r\n    modifier onlyManager(){\r\n        require(msg.sender == manager, \"You are not allowed to do this functionality!\");\r\n        _;\r\n    }\r\n\r\n    constructor(){\r\n        manager = msg.sender;\r\n    }\r\n\r\n    function registerParticipant() public payable {\r\n        require(msg.sender != manager, \"You are manager\");\r\n        require(msg.value == 1 ether, \"Enter valid ticket size\");\r\n        ParticipantsList[nextID] = particiapnt(nextID, payable (msg.sender));\r\n        nextID++;\r\n    }\r\n\r\n    function getBalanceOfBallot() public view onlyManager returns(uint){\r\n        require(msg.sender == manager, \"You are not manager\");\r\n        return(address(this).balance);\r\n    }\r\n\r\n    function random() private view returns(uint){\r\n        return uint(keccak256(abi.encodePacked(block.difficulty, block.timestamp, nextID)));\r\n    }\r\n\r\n    function selectWinner() public onlyManager(){\r\n        \r\n        require(nextID>= 3);\r\n        uint index = random() % nextID;\r\n        winner = ParticipantsList[index].accountAddress;\r\n        winner.transfer(address(this).balance);\r\n        for(uint i=0; i<nextID; i++){\r\n            ParticipantsList[i] = particiapnt(0,payable(address(0)));\r\n        }\r\n        nextID = 0;\r\n    }\r\n\r\n    function returnParticipantsList() public view returns (particiapnt[] memory){\r\n        particiapnt[] memory participantsList = new particiapnt[](nextID);\r\n        particiapnt memory temp;\r\n        for(uint i=0; i<nextID; i++){\r\n            temp = ParticipantsList[i];\r\n            participantsList[i] = temp;\r\n        }\r\n        return participantsList;\r\n    }\r\n\r\n    receive() external payable{\r\n        if(msg.value != 1 ether || msg.sender != manager){\r\n            payable (msg.sender).transfer(msg.value);\r\n        }\r\n        ParticipantsList[nextID] = particiapnt(nextID, payable (msg.sender));\r\n        nextID++;\r\n    }\r\n    fallback() external { }\r\n}",
  "sourcePath": "D:\\programing\\Blockchain\\code\\Solidity\\solidity advance\\lottery Dapp\\contracts\\Lottery.sol",
  "compiler": {
    "name": "solc",
    "version": "0.8.13+commit.abaa5c0e.Emscripten.clang"
  },
  "schemaVersion": "3.4.15",
  "updatedAt": "2023-10-19T05:44:01.644Z",
  "networkType": "ethereum",
  "devdoc": {
    "kind": "dev",
    "methods": {},
    "version": 1
  },
  "userdoc": {
    "kind": "user",
    "methods": {},
    "version": 1
  }
}